{
    "_format": "hh-sol-artifact-1",
    "contractName": "chatapp",
    "sourceName": "contracts/ChatApp.sol",
    "abi": [
        {
            "inputs": [],
            "stateMutability": "nonpayable",
            "type": "constructor"
        },
        {
            "anonymous": false,
            "inputs": [
                {
                    "indexed": false,
                    "internalType": "address",
                    "name": "author",
                    "type": "address"
                },
                {
                    "indexed": false,
                    "internalType": "string",
                    "name": "content",
                    "type": "string"
                },
                {
                    "indexed": false,
                    "internalType": "uint256",
                    "name": "time",
                    "type": "uint256"
                }
            ],
            "name": "Post_added",
            "type": "event"
        },
        {
            "anonymous": false,
            "inputs": [
                {
                    "indexed": false,
                    "internalType": "address",
                    "name": "author",
                    "type": "address"
                }
            ],
            "name": "like_added",
            "type": "event"
        },
        {
            "anonymous": false,
            "inputs": [
                {
                    "indexed": false,
                    "internalType": "address",
                    "name": "from",
                    "type": "address"
                },
                {
                    "indexed": false,
                    "internalType": "address",
                    "name": "to",
                    "type": "address"
                }
            ],
            "name": "request_event",
            "type": "event"
        },
        {
            "inputs": [
                {
                    "internalType": "address",
                    "name": "user",
                    "type": "address"
                }
            ],
            "name": "acceptFriendRequest",
            "outputs": [],
            "stateMutability": "nonpayable",
            "type": "function"
        },
        {
            "inputs": [
                {
                    "internalType": "string",
                    "name": "content",
                    "type": "string"
                },
                {
                    "internalType": "string",
                    "name": "image",
                    "type": "string"
                }
            ],
            "name": "addPost",
            "outputs": [],
            "stateMutability": "nonpayable",
            "type": "function"
        },
        {
            "inputs": [
                {
                    "internalType": "string",
                    "name": "_name",
                    "type": "string"
                },
                {
                    "internalType": "bool",
                    "name": "_pronoun",
                    "type": "bool"
                },
                {
                    "internalType": "string",
                    "name": "_description",
                    "type": "string"
                },
                {
                    "internalType": "string",
                    "name": "_organisation",
                    "type": "string"
                },
                {
                    "internalType": "string",
                    "name": "_lives",
                    "type": "string"
                },
                {
                    "internalType": "string",
                    "name": "_about",
                    "type": "string"
                },
                {
                    "internalType": "string[]",
                    "name": "_skills",
                    "type": "string[]"
                },
                {
                    "internalType": "string",
                    "name": "_image",
                    "type": "string"
                }
            ],
            "name": "createProfile",
            "outputs": [],
            "stateMutability": "nonpayable",
            "type": "function"
        },
        {
            "inputs": [
                {
                    "internalType": "address",
                    "name": "user",
                    "type": "address"
                }
            ],
            "name": "getAllRequests",
            "outputs": [
                {
                    "components": [
                        {
                            "internalType": "address",
                            "name": "from",
                            "type": "address"
                        },
                        {
                            "internalType": "address",
                            "name": "to",
                            "type": "address"
                        },
                        {
                            "internalType": "uint256",
                            "name": "time",
                            "type": "uint256"
                        }
                    ],
                    "internalType": "struct chatapp.request[]",
                    "name": "",
                    "type": "tuple[]"
                }
            ],
            "stateMutability": "view",
            "type": "function"
        },
        {
            "inputs": [
                {
                    "internalType": "address",
                    "name": "user",
                    "type": "address"
                }
            ],
            "name": "getPosts",
            "outputs": [
                {
                    "components": [
                        {
                            "internalType": "uint256",
                            "name": "id",
                            "type": "uint256"
                        },
                        {
                            "internalType": "address",
                            "name": "author",
                            "type": "address"
                        },
                        {
                            "internalType": "string",
                            "name": "content",
                            "type": "string"
                        },
                        {
                            "internalType": "string",
                            "name": "image",
                            "type": "string"
                        },
                        {
                            "internalType": "uint256",
                            "name": "time",
                            "type": "uint256"
                        },
                        {
                            "internalType": "uint256",
                            "name": "likes",
                            "type": "uint256"
                        },
                        {
                            "internalType": "string[]",
                            "name": "comments",
                            "type": "string[]"
                        },
                        {
                            "internalType": "address[]",
                            "name": "users_liked",
                            "type": "address[]"
                        }
                    ],
                    "internalType": "struct chatapp.Post[]",
                    "name": "",
                    "type": "tuple[]"
                }
            ],
            "stateMutability": "view",
            "type": "function"
        },
        {
            "inputs": [
                {
                    "internalType": "address",
                    "name": "author",
                    "type": "address"
                },
                {
                    "internalType": "uint256",
                    "name": "id",
                    "type": "uint256"
                }
            ],
            "name": "likePost",
            "outputs": [],
            "stateMutability": "nonpayable",
            "type": "function"
        },
        {
            "inputs": [],
            "name": "owner",
            "outputs": [
                {
                    "internalType": "address",
                    "name": "",
                    "type": "address"
                }
            ],
            "stateMutability": "view",
            "type": "function"
        },
        {
            "inputs": [
                {
                    "internalType": "address",
                    "name": "user",
                    "type": "address"
                }
            ],
            "name": "rejectFriendRequest",
            "outputs": [],
            "stateMutability": "nonpayable",
            "type": "function"
        },
        {
            "inputs": [
                {
                    "internalType": "address",
                    "name": "to",
                    "type": "address"
                }
            ],
            "name": "sendFriendRequest",
            "outputs": [],
            "stateMutability": "nonpayable",
            "type": "function"
        },
        {
            "inputs": [
                {
                    "internalType": "string",
                    "name": "_about",
                    "type": "string"
                }
            ],
            "name": "updateAbout",
            "outputs": [],
            "stateMutability": "nonpayable",
            "type": "function"
        },
        {
            "inputs": [
                {
                    "internalType": "string",
                    "name": "_description",
                    "type": "string"
                }
            ],
            "name": "updateDesc",
            "outputs": [],
            "stateMutability": "nonpayable",
            "type": "function"
        },
        {
            "inputs": [
                {
                    "internalType": "string",
                    "name": "_newSkill",
                    "type": "string"
                }
            ],
            "name": "updateSkills",
            "outputs": [],
            "stateMutability": "nonpayable",
            "type": "function"
        },
        {
            "inputs": [
                {
                    "internalType": "address",
                    "name": "",
                    "type": "address"
                }
            ],
            "name": "userProfile",
            "outputs": [
                {
                    "internalType": "string",
                    "name": "name",
                    "type": "string"
                },
                {
                    "internalType": "bool",
                    "name": "pronoun",
                    "type": "bool"
                },
                {
                    "internalType": "string",
                    "name": "description",
                    "type": "string"
                },
                {
                    "internalType": "string",
                    "name": "organisation",
                    "type": "string"
                },
                {
                    "internalType": "string",
                    "name": "lives",
                    "type": "string"
                },
                {
                    "internalType": "string",
                    "name": "about",
                    "type": "string"
                },
                {
                    "internalType": "string",
                    "name": "image",
                    "type": "string"
                }
            ],
            "stateMutability": "view",
            "type": "function"
        }
    ],
    "bytecode": "0x608060405234801561001057600080fd5b50336000806101000a81548173ffffffffffffffffffffffffffffffffffffffff021916908373ffffffffffffffffffffffffffffffffffffffff160217905550612fab806100606000396000f3fe608060405234801561001057600080fd5b50600436106100cf5760003560e01c80638da5cb5b1161008c578063b02c651611610066578063b02c651614610214578063bad1fb9014610230578063c0015f4f1461024c578063c3abe4f614610268576100cf565b80638da5cb5b146101be578063955af0e8146101dc578063a9f56466146101f8576100cf565b80631c8e8962146100d4578063483515291461010a5780634caf9d0b146101265780634fbf35ad146101565780636c78184d14610172578063837b770a146101a2575b600080fd5b6100ee60048036038101906100e99190611ec0565b610284565b6040516101019796959493929190611f98565b60405180910390f35b610124600480360381019061011f9190612067565b610603565b005b610140600480360381019061013b9190611ec0565b610744565b60405161014d9190612407565b60405180910390f35b610170600480360381019061016b919061255e565b610ae2565b005b61018c60048036038101906101879190611ec0565b610b7b565b6040516101999190612698565b60405180910390f35b6101bc60048036038101906101b79190611ec0565b610ccf565b005b6101c6610f5d565b6040516101d391906126c9565b60405180910390f35b6101f660048036038101906101f191906127f6565b610f81565b005b610212600480360381019061020d9190611ec0565b6110ca565b005b61022e60048036038101906102299190612970565b61123f565b005b61024a6004803603810190610245919061255e565b611535565b005b61026660048036038101906102619190611ec0565b6115ce565b005b610282600480360381019061027d919061255e565b611603565b005b60016020528060005260406000206000915090508060000180546102a790612a17565b80601f01602080910402602001604051908101604052809291908181526020018280546102d390612a17565b80156103205780601f106102f557610100808354040283529160200191610320565b820191906000526020600020905b81548152906001019060200180831161030357829003601f168201915b5050505050908060010160009054906101000a900460ff169080600201805461034890612a17565b80601f016020809104026020016040519081016040528092919081815260200182805461037490612a17565b80156103c15780601f10610396576101008083540402835291602001916103c1565b820191906000526020600020905b8154815290600101906020018083116103a457829003601f168201915b5050505050908060030180546103d690612a17565b80601f016020809104026020016040519081016040528092919081815260200182805461040290612a17565b801561044f5780601f106104245761010080835404028352916020019161044f565b820191906000526020600020905b81548152906001019060200180831161043257829003601f168201915b50505050509080600401805461046490612a17565b80601f016020809104026020016040519081016040528092919081815260200182805461049090612a17565b80156104dd5780601f106104b2576101008083540402835291602001916104dd565b820191906000526020600020905b8154815290600101906020018083116104c057829003601f168201915b5050505050908060050180546104f290612a17565b80601f016020809104026020016040519081016040528092919081815260200182805461051e90612a17565b801561056b5780601f106105405761010080835404028352916020019161056b565b820191906000526020600020905b81548152906001019060200180831161054e57829003601f168201915b50505050509080600701805461058090612a17565b80601f01602080910402602001604051908101604052809291908181526020018280546105ac90612a17565b80156105f95780601f106105ce576101008083540402835291602001916105f9565b820191906000526020600020905b8154815290600101906020018083116105dc57829003601f168201915b5050505050905087565b6001600460008473ffffffffffffffffffffffffffffffffffffffff1673ffffffffffffffffffffffffffffffffffffffff168152602001908152602001600020828154811061065657610655612a48565b5b906000526020600020906008020160050160008282546106769190612aa6565b92505081905550600460008373ffffffffffffffffffffffffffffffffffffffff1673ffffffffffffffffffffffffffffffffffffffff16815260200190815260200160002081815481106106ce576106cd612a48565b5b9060005260206000209060080201600701339080600181540180825580915050600190039060005260206000200160009091909190916101000a81548173ffffffffffffffffffffffffffffffffffffffff021916908373ffffffffffffffffffffffffffffffffffffffff1602179055505050565b6060600460008373ffffffffffffffffffffffffffffffffffffffff1673ffffffffffffffffffffffffffffffffffffffff168152602001908152602001600020805480602002602001604051908101604052809291908181526020016000905b82821015610ad7578382906000526020600020906008020160405180610100016040529081600082015481526020016001820160009054906101000a900473ffffffffffffffffffffffffffffffffffffffff1673ffffffffffffffffffffffffffffffffffffffff1673ffffffffffffffffffffffffffffffffffffffff16815260200160028201805461083990612a17565b80601f016020809104026020016040519081016040528092919081815260200182805461086590612a17565b80156108b25780601f10610887576101008083540402835291602001916108b2565b820191906000526020600020905b81548152906001019060200180831161089557829003601f168201915b505050505081526020016003820180546108cb90612a17565b80601f01602080910402602001604051908101604052809291908181526020018280546108f790612a17565b80156109445780601f1061091957610100808354040283529160200191610944565b820191906000526020600020905b81548152906001019060200180831161092757829003601f168201915b50505050508152602001600482015481526020016005820154815260200160068201805480602002602001604051908101604052809291908181526020016000905b82821015610a325783829060005260206000200180546109a590612a17565b80601f01602080910402602001604051908101604052809291908181526020018280546109d190612a17565b8015610a1e5780601f106109f357610100808354040283529160200191610a1e565b820191906000526020600020905b815481529060010190602001808311610a0157829003601f168201915b505050505081526020019060010190610986565b50505050815260200160078201805480602002602001604051908101604052809291908181526020018280548015610abf57602002820191906000526020600020905b8160009054906101000a900473ffffffffffffffffffffffffffffffffffffffff1673ffffffffffffffffffffffffffffffffffffffff1681526020019060010190808311610a75575b505050505081525050815260200190600101906107a5565b505050509050919050565b806000815111610b27576040517f08c379a0000000000000000000000000000000000000000000000000000000008152600401610b1e90612b26565b60405180910390fd5b81600160003373ffffffffffffffffffffffffffffffffffffffff1673ffffffffffffffffffffffffffffffffffffffff1681526020019081526020016000206002019081610b769190612cf2565b505050565b6060600360008373ffffffffffffffffffffffffffffffffffffffff1673ffffffffffffffffffffffffffffffffffffffff168152602001908152602001600020805480602002602001604051908101604052809291908181526020016000905b82821015610cc457838290600052602060002090600302016040518060600160405290816000820160009054906101000a900473ffffffffffffffffffffffffffffffffffffffff1673ffffffffffffffffffffffffffffffffffffffff1673ffffffffffffffffffffffffffffffffffffffff1681526020016001820160009054906101000a900473ffffffffffffffffffffffffffffffffffffffff1673ffffffffffffffffffffffffffffffffffffffff1673ffffffffffffffffffffffffffffffffffffffff16815260200160028201548152505081526020019060010190610bdc565b505050509050919050565b600060405180606001604052803373ffffffffffffffffffffffffffffffffffffffff1681526020018373ffffffffffffffffffffffffffffffffffffffff168152602001428152509050600360008373ffffffffffffffffffffffffffffffffffffffff1673ffffffffffffffffffffffffffffffffffffffff16815260200190815260200160002081908060018154018082558091505060019003906000526020600020906003020160009091909190915060008201518160000160006101000a81548173ffffffffffffffffffffffffffffffffffffffff021916908373ffffffffffffffffffffffffffffffffffffffff16021790555060208201518160010160006101000a81548173ffffffffffffffffffffffffffffffffffffffff021916908373ffffffffffffffffffffffffffffffffffffffff160217905550604082015181600201555050600360003373ffffffffffffffffffffffffffffffffffffffff1673ffffffffffffffffffffffffffffffffffffffff16815260200190815260200160002081908060018154018082558091505060019003906000526020600020906003020160009091909190915060008201518160000160006101000a81548173ffffffffffffffffffffffffffffffffffffffff021916908373ffffffffffffffffffffffffffffffffffffffff16021790555060208201518160010160006101000a81548173ffffffffffffffffffffffffffffffffffffffff021916908373ffffffffffffffffffffffffffffffffffffffff1602179055506040820151816002015550507ffe5f3a0346c002a93fde61742ff0a38a5a847b30c2f04aff7f5ed5467dd4061d3383604051610f51929190612dc4565b60405180910390a15050565b60008054906101000a900473ffffffffffffffffffffffffffffffffffffffff1681565b604051806101000160405280898152602001881515815260200187815260200186815260200185815260200184815260200183815260200182815250600160003373ffffffffffffffffffffffffffffffffffffffff1673ffffffffffffffffffffffffffffffffffffffff16815260200190815260200160002060008201518160000190816110119190612cf2565b5060208201518160010160006101000a81548160ff02191690831515021790555060408201518160020190816110479190612cf2565b50606082015181600301908161105d9190612cf2565b5060808201518160040190816110739190612cf2565b5060a08201518160050190816110899190612cf2565b5060c08201518160060190805190602001906110a6929190611cea565b5060e08201518160070190816110bc9190612cf2565b509050505050505050505050565b60006110d682336116c1565b90506110e2338261182b565b60006110ee8333611b80565b90506110fa838261182b565b600260008473ffffffffffffffffffffffffffffffffffffffff1673ffffffffffffffffffffffffffffffffffffffff168152602001908152602001600020339080600181540180825580915050600190039060005260206000200160009091909190916101000a81548173ffffffffffffffffffffffffffffffffffffffff021916908373ffffffffffffffffffffffffffffffffffffffff160217905550600260003373ffffffffffffffffffffffffffffffffffffffff1673ffffffffffffffffffffffffffffffffffffffff168152602001908152602001600020839080600181540180825580915050600190039060005260206000200160009091909190916101000a81548173ffffffffffffffffffffffffffffffffffffffff021916908373ffffffffffffffffffffffffffffffffffffffff160217905550505050565b6000825111611283576040517f08c379a000000000000000000000000000000000000000000000000000000000815260040161127a90612e39565b60405180910390fd5b60008067ffffffffffffffff81111561129f5761129e612433565b5b6040519080825280602002602001820160405280156112d257816020015b60608152602001906001900390816112bd5790505b50905060008067ffffffffffffffff8111156112f1576112f0612433565b5b60405190808252806020026020018201604052801561131f5781602001602082028036833780820191505090505b5090506000604051806101000160405280600460003373ffffffffffffffffffffffffffffffffffffffff1673ffffffffffffffffffffffffffffffffffffffff1681526020019081526020016000208054905081526020013373ffffffffffffffffffffffffffffffffffffffff16815260200186815260200185815260200142815260200160008152602001848152602001838152509050600460003373ffffffffffffffffffffffffffffffffffffffff1673ffffffffffffffffffffffffffffffffffffffff1681526020019081526020016000208190806001815401808255809150506001900390600052602060002090600802016000909190919091506000820151816000015560208201518160010160006101000a81548173ffffffffffffffffffffffffffffffffffffffff021916908373ffffffffffffffffffffffffffffffffffffffff16021790555060408201518160020190816114889190612cf2565b50606082015181600301908161149e9190612cf2565b506080820151816004015560a0820151816005015560c08201518160060190805190602001906114cf929190611cea565b5060e08201518160070190805190602001906114ec929190611d43565b5050507fd8ba4f273ef6a931f13dc691474b7c1f96c178aa14cbb5138b49c33ecf06f3103386836080015160405161152693929190612e68565b60405180910390a15050505050565b80600081511161157a576040517f08c379a000000000000000000000000000000000000000000000000000000000815260040161157190612b26565b60405180910390fd5b81600160003373ffffffffffffffffffffffffffffffffffffffff1673ffffffffffffffffffffffffffffffffffffffff16815260200190815260200160002060050190816115c99190612cf2565b505050565b60006115da82336116c1565b90506115e6338261182b565b60006115f28333611b80565b90506115fe838261182b565b505050565b806000815111611648576040517f08c379a000000000000000000000000000000000000000000000000000000000815260040161163f90612b26565b60405180910390fd5b600160003373ffffffffffffffffffffffffffffffffffffffff1673ffffffffffffffffffffffffffffffffffffffff168152602001908152602001600020600601829080600181540180825580915050600190039060005260206000200160009091909190915090816116bc9190612cf2565b505050565b600080600090505b600360008473ffffffffffffffffffffffffffffffffffffffff1673ffffffffffffffffffffffffffffffffffffffff168152602001908152602001600020805490508110156117de578373ffffffffffffffffffffffffffffffffffffffff16600360008573ffffffffffffffffffffffffffffffffffffffff1673ffffffffffffffffffffffffffffffffffffffff168152602001908152602001600020828154811061177b5761177a612a48565b5b906000526020600020906003020160000160009054906101000a900473ffffffffffffffffffffffffffffffffffffffff1673ffffffffffffffffffffffffffffffffffffffff16036117d15780915050611825565b80806001019150506116c9565b50600360008373ffffffffffffffffffffffffffffffffffffffff1673ffffffffffffffffffffffffffffffffffffffff1681526020019081526020016000208054905090505b92915050565b600360008373ffffffffffffffffffffffffffffffffffffffff1673ffffffffffffffffffffffffffffffffffffffff1681526020019081526020016000208054905081106118af576040517f08c379a00000000000000000000000000000000000000000000000000000000081526004016118a690612ef2565b60405180910390fd5b60008190505b6001600360008573ffffffffffffffffffffffffffffffffffffffff1673ffffffffffffffffffffffffffffffffffffffff168152602001908152602001600020805490506119049190612f12565b811015611abd57600360008473ffffffffffffffffffffffffffffffffffffffff1673ffffffffffffffffffffffffffffffffffffffff1681526020019081526020016000206001826119579190612aa6565b8154811061196857611967612a48565b5b9060005260206000209060030201600360008573ffffffffffffffffffffffffffffffffffffffff1673ffffffffffffffffffffffffffffffffffffffff16815260200190815260200160002082815481106119c7576119c6612a48565b5b90600052602060002090600302016000820160009054906101000a900473ffffffffffffffffffffffffffffffffffffffff168160000160006101000a81548173ffffffffffffffffffffffffffffffffffffffff021916908373ffffffffffffffffffffffffffffffffffffffff1602179055506001820160009054906101000a900473ffffffffffffffffffffffffffffffffffffffff168160010160006101000a81548173ffffffffffffffffffffffffffffffffffffffff021916908373ffffffffffffffffffffffffffffffffffffffff1602179055506002820154816002015590505080806001019150506118b5565b50600360008373ffffffffffffffffffffffffffffffffffffffff1673ffffffffffffffffffffffffffffffffffffffff168152602001908152602001600020805480611b0d57611b0c612f46565b5b6001900381819060005260206000209060030201600080820160006101000a81549073ffffffffffffffffffffffffffffffffffffffff02191690556001820160006101000a81549073ffffffffffffffffffffffffffffffffffffffff02191690556002820160009055505090555050565b600080600090505b600360008573ffffffffffffffffffffffffffffffffffffffff1673ffffffffffffffffffffffffffffffffffffffff16815260200190815260200160002080549050811015611c9d578273ffffffffffffffffffffffffffffffffffffffff16600360008673ffffffffffffffffffffffffffffffffffffffff1673ffffffffffffffffffffffffffffffffffffffff1681526020019081526020016000208281548110611c3a57611c39612a48565b5b906000526020600020906003020160010160009054906101000a900473ffffffffffffffffffffffffffffffffffffffff1673ffffffffffffffffffffffffffffffffffffffff1603611c905780915050611ce4565b8080600101915050611b88565b50600360008473ffffffffffffffffffffffffffffffffffffffff1673ffffffffffffffffffffffffffffffffffffffff1681526020019081526020016000208054905090505b92915050565b828054828255906000526020600020908101928215611d32579160200282015b82811115611d31578251829081611d219190612cf2565b5091602001919060010190611d0a565b5b509050611d3f9190611dcd565b5090565b828054828255906000526020600020908101928215611dbc579160200282015b82811115611dbb5782518260006101000a81548173ffffffffffffffffffffffffffffffffffffffff021916908373ffffffffffffffffffffffffffffffffffffffff16021790555091602001919060010190611d63565b5b509050611dc99190611df1565b5090565b5b80821115611ded5760008181611de49190611e0e565b50600101611dce565b5090565b5b80821115611e0a576000816000905550600101611df2565b5090565b508054611e1a90612a17565b6000825580601f10611e2c5750611e4b565b601f016020900490600052602060002090810190611e4a9190611df1565b5b50565b6000604051905090565b600080fd5b600080fd5b600073ffffffffffffffffffffffffffffffffffffffff82169050919050565b6000611e8d82611e62565b9050919050565b611e9d81611e82565b8114611ea857600080fd5b50565b600081359050611eba81611e94565b92915050565b600060208284031215611ed657611ed5611e58565b5b6000611ee484828501611eab565b91505092915050565b600081519050919050565b600082825260208201905092915050565b60005b83811015611f27578082015181840152602081019050611f0c565b60008484015250505050565b6000601f19601f8301169050919050565b6000611f4f82611eed565b611f598185611ef8565b9350611f69818560208601611f09565b611f7281611f33565b840191505092915050565b60008115159050919050565b611f9281611f7d565b82525050565b600060e0820190508181036000830152611fb2818a611f44565b9050611fc16020830189611f89565b8181036040830152611fd38188611f44565b90508181036060830152611fe78187611f44565b90508181036080830152611ffb8186611f44565b905081810360a083015261200f8185611f44565b905081810360c08301526120238184611f44565b905098975050505050505050565b6000819050919050565b61204481612031565b811461204f57600080fd5b50565b6000813590506120618161203b565b92915050565b6000806040838503121561207e5761207d611e58565b5b600061208c85828601611eab565b925050602061209d85828601612052565b9150509250929050565b600081519050919050565b600082825260208201905092915050565b6000819050602082019050919050565b6120dc81612031565b82525050565b6120eb81611e82565b82525050565b600082825260208201905092915050565b600061210d82611eed565b61211781856120f1565b9350612127818560208601611f09565b61213081611f33565b840191505092915050565b600081519050919050565b600082825260208201905092915050565b6000819050602082019050919050565b60006121738383612102565b905092915050565b6000602082019050919050565b60006121938261213b565b61219d8185612146565b9350836020820285016121af85612157565b8060005b858110156121eb57848403895281516121cc8582612167565b94506121d78361217b565b925060208a019950506001810190506121b3565b50829750879550505050505092915050565b600081519050919050565b600082825260208201905092915050565b6000819050602082019050919050565b600061223583836120e2565b60208301905092915050565b6000602082019050919050565b6000612259826121fd565b6122638185612208565b935061226e83612219565b8060005b8381101561229f5781516122868882612229565b975061229183612241565b925050600181019050612272565b5085935050505092915050565b6000610100830160008301516122c560008601826120d3565b5060208301516122d860208601826120e2565b50604083015184820360408601526122f08282612102565b9150506060830151848203606086015261230a8282612102565b915050608083015161231f60808601826120d3565b5060a083015161233260a08601826120d3565b5060c083015184820360c086015261234a8282612188565b91505060e083015184820360e0860152612364828261224e565b9150508091505092915050565b600061237d83836122ac565b905092915050565b6000602082019050919050565b600061239d826120a7565b6123a781856120b2565b9350836020820285016123b9856120c3565b8060005b858110156123f557848403895281516123d68582612371565b94506123e183612385565b925060208a019950506001810190506123bd565b50829750879550505050505092915050565b600060208201905081810360008301526124218184612392565b905092915050565b600080fd5b600080fd5b7f4e487b7100000000000000000000000000000000000000000000000000000000600052604160045260246000fd5b61246b82611f33565b810181811067ffffffffffffffff8211171561248a57612489612433565b5b80604052505050565b600061249d611e4e565b90506124a98282612462565b919050565b600067ffffffffffffffff8211156124c9576124c8612433565b5b6124d282611f33565b9050602081019050919050565b82818337600083830152505050565b60006125016124fc846124ae565b612493565b90508281526020810184848401111561251d5761251c61242e565b5b6125288482856124df565b509392505050565b600082601f83011261254557612544612429565b5b81356125558482602086016124ee565b91505092915050565b60006020828403121561257457612573611e58565b5b600082013567ffffffffffffffff81111561259257612591611e5d565b5b61259e84828501612530565b91505092915050565b600081519050919050565b600082825260208201905092915050565b6000819050602082019050919050565b6060820160008201516125e960008501826120e2565b5060208201516125fc60208501826120e2565b50604082015161260f60408501826120d3565b50505050565b600061262183836125d3565b60608301905092915050565b6000602082019050919050565b6000612645826125a7565b61264f81856125b2565b935061265a836125c3565b8060005b8381101561268b5781516126728882612615565b975061267d8361262d565b92505060018101905061265e565b5085935050505092915050565b600060208201905081810360008301526126b2818461263a565b905092915050565b6126c381611e82565b82525050565b60006020820190506126de60008301846126ba565b92915050565b6126ed81611f7d565b81146126f857600080fd5b50565b60008135905061270a816126e4565b92915050565b600067ffffffffffffffff82111561272b5761272a612433565b5b602082029050602081019050919050565b600080fd5b600061275461274f84612710565b612493565b905080838252602082019050602084028301858111156127775761277661273c565b5b835b818110156127be57803567ffffffffffffffff81111561279c5761279b612429565b5b8086016127a98982612530565b85526020850194505050602081019050612779565b5050509392505050565b600082601f8301126127dd576127dc612429565b5b81356127ed848260208601612741565b91505092915050565b600080600080600080600080610100898b03121561281757612816611e58565b5b600089013567ffffffffffffffff81111561283557612834611e5d565b5b6128418b828c01612530565b98505060206128528b828c016126fb565b975050604089013567ffffffffffffffff81111561287357612872611e5d565b5b61287f8b828c01612530565b965050606089013567ffffffffffffffff8111156128a05761289f611e5d565b5b6128ac8b828c01612530565b955050608089013567ffffffffffffffff8111156128cd576128cc611e5d565b5b6128d98b828c01612530565b94505060a089013567ffffffffffffffff8111156128fa576128f9611e5d565b5b6129068b828c01612530565b93505060c089013567ffffffffffffffff81111561292757612926611e5d565b5b6129338b828c016127c8565b92505060e089013567ffffffffffffffff81111561295457612953611e5d565b5b6129608b828c01612530565b9150509295985092959890939650565b6000806040838503121561298757612986611e58565b5b600083013567ffffffffffffffff8111156129a5576129a4611e5d565b5b6129b185828601612530565b925050602083013567ffffffffffffffff8111156129d2576129d1611e5d565b5b6129de85828601612530565b9150509250929050565b7f4e487b7100000000000000000000000000000000000000000000000000000000600052602260045260246000fd5b60006002820490506001821680612a2f57607f821691505b602082108103612a4257612a416129e8565b5b50919050565b7f4e487b7100000000000000000000000000000000000000000000000000000000600052603260045260246000fd5b7f4e487b7100000000000000000000000000000000000000000000000000000000600052601160045260246000fd5b6000612ab182612031565b9150612abc83612031565b9250828201905080821115612ad457612ad3612a77565b5b92915050565b7f656d707479207465787400000000000000000000000000000000000000000000600082015250565b6000612b10600a83611ef8565b9150612b1b82612ada565b602082019050919050565b60006020820190508181036000830152612b3f81612b03565b9050919050565b60008190508160005260206000209050919050565b60006020601f8301049050919050565b600082821b905092915050565b600060088302612ba87fffffffffffffffffffffffffffffffffffffffffffffffffffffffffffffffff82612b6b565b612bb28683612b6b565b95508019841693508086168417925050509392505050565b6000819050919050565b6000612bef612bea612be584612031565b612bca565b612031565b9050919050565b6000819050919050565b612c0983612bd4565b612c1d612c1582612bf6565b848454612b78565b825550505050565b600090565b612c32612c25565b612c3d818484612c00565b505050565b5b81811015612c6157612c56600082612c2a565b600181019050612c43565b5050565b601f821115612ca657612c7781612b46565b612c8084612b5b565b81016020851015612c8f578190505b612ca3612c9b85612b5b565b830182612c42565b50505b505050565b600082821c905092915050565b6000612cc960001984600802612cab565b1980831691505092915050565b6000612ce28383612cb8565b9150826002028217905092915050565b612cfb82611eed565b67ffffffffffffffff811115612d1457612d13612433565b5b612d1e8254612a17565b612d29828285612c65565b600060209050601f831160018114612d5c5760008415612d4a578287015190505b612d548582612cd6565b865550612dbc565b601f198416612d6a86612b46565b60005b82811015612d9257848901518255600182019150602085019450602081019050612d6d565b86831015612daf5784890151612dab601f891682612cb8565b8355505b6001600288020188555050505b505050505050565b6000604082019050612dd960008301856126ba565b612de660208301846126ba565b9392505050565b7f636f6e74656e74206d757374206e6f7420626520656d70747900000000000000600082015250565b6000612e23601983611ef8565b9150612e2e82612ded565b602082019050919050565b60006020820190508181036000830152612e5281612e16565b9050919050565b612e6281612031565b82525050565b6000606082019050612e7d60008301866126ba565b8181036020830152612e8f8185611f44565b9050612e9e6040830184612e59565b949350505050565b7f496e76616c6964207265717565737420696e6465782e00000000000000000000600082015250565b6000612edc601683611ef8565b9150612ee782612ea6565b602082019050919050565b60006020820190508181036000830152612f0b81612ecf565b9050919050565b6000612f1d82612031565b9150612f2883612031565b9250828203905081811115612f4057612f3f612a77565b5b92915050565b7f4e487b7100000000000000000000000000000000000000000000000000000000600052603160045260246000fdfea264697066735822122004603f7050f5d7a3fdb66a083e297f2f831b21c772aa47e4ff4e42336b87b6d264736f6c63430008180033",
    "linkReferences": {},
    "deployedLinkReferences": {}
}