{
  "_format": "hh-sol-artifact-1",
  "contractName": "chatapp",
  "sourceName": "contracts/ChatApp.sol",
  "abi": [
    {
      "inputs": [],
      "stateMutability": "nonpayable",
      "type": "constructor"
    },
    {
      "anonymous": false,
      "inputs": [
        {
          "indexed": false,
          "internalType": "address",
          "name": "author",
          "type": "address"
        },
        {
          "indexed": false,
          "internalType": "string",
          "name": "content",
          "type": "string"
        },
        {
          "indexed": false,
          "internalType": "uint256",
          "name": "time",
          "type": "uint256"
        }
      ],
      "name": "Post_added",
      "type": "event"
    },
    {
      "anonymous": false,
      "inputs": [
        {
          "indexed": false,
          "internalType": "address",
          "name": "author",
          "type": "address"
        }
      ],
      "name": "like_added",
      "type": "event"
    },
    {
      "anonymous": false,
      "inputs": [
        {
          "indexed": false,
          "internalType": "address",
          "name": "from",
          "type": "address"
        },
        {
          "indexed": false,
          "internalType": "address",
          "name": "to",
          "type": "address"
        }
      ],
      "name": "request_event",
      "type": "event"
    },
    {
      "inputs": [
        {
          "internalType": "address",
          "name": "user",
          "type": "address"
        }
      ],
      "name": "acceptFriendRequest",
      "outputs": [],
      "stateMutability": "nonpayable",
      "type": "function"
    },
    {
      "inputs": [
        {
          "internalType": "string",
          "name": "content",
          "type": "string"
        },
        {
          "internalType": "string",
          "name": "image",
          "type": "string"
        }
      ],
      "name": "addPost",
      "outputs": [],
      "stateMutability": "nonpayable",
      "type": "function"
    },
    {
      "inputs": [
        {
          "internalType": "string",
          "name": "_name",
          "type": "string"
        },
        {
          "internalType": "bool",
          "name": "_pronoun",
          "type": "bool"
        },
        {
          "internalType": "string",
          "name": "_description",
          "type": "string"
        },
        {
          "internalType": "string",
          "name": "_organisation",
          "type": "string"
        },
        {
          "internalType": "string",
          "name": "_lives",
          "type": "string"
        },
        {
          "internalType": "string",
          "name": "_about",
          "type": "string"
        },
        {
          "internalType": "string[]",
          "name": "_skills",
          "type": "string[]"
        },
        {
          "internalType": "string",
          "name": "_image",
          "type": "string"
        }
      ],
      "name": "createProfile",
      "outputs": [],
      "stateMutability": "nonpayable",
      "type": "function"
    },
    {
      "inputs": [
        {
          "internalType": "address",
          "name": "user",
          "type": "address"
        }
      ],
      "name": "getAllRequests",
      "outputs": [
        {
          "components": [
            {
              "internalType": "address",
              "name": "from",
              "type": "address"
            },
            {
              "internalType": "address",
              "name": "to",
              "type": "address"
            },
            {
              "internalType": "uint256",
              "name": "time",
              "type": "uint256"
            }
          ],
          "internalType": "struct chatapp.request[]",
          "name": "",
          "type": "tuple[]"
        }
      ],
      "stateMutability": "view",
      "type": "function"
    },
    {
      "inputs": [
        {
          "internalType": "address",
          "name": "user",
          "type": "address"
        }
      ],
      "name": "getPosts",
      "outputs": [
        {
          "components": [
            {
              "internalType": "uint256",
              "name": "id",
              "type": "uint256"
            },
            {
              "internalType": "address",
              "name": "author",
              "type": "address"
            },
            {
              "internalType": "string",
              "name": "content",
              "type": "string"
            },
            {
              "internalType": "string",
              "name": "image",
              "type": "string"
            },
            {
              "internalType": "uint256",
              "name": "time",
              "type": "uint256"
            },
            {
              "internalType": "uint256",
              "name": "likes",
              "type": "uint256"
            },
            {
              "internalType": "string[]",
              "name": "comments",
              "type": "string[]"
            },
            {
              "internalType": "address[]",
              "name": "users_liked",
              "type": "address[]"
            }
          ],
          "internalType": "struct chatapp.Post[]",
          "name": "",
          "type": "tuple[]"
        }
      ],
      "stateMutability": "view",
      "type": "function"
    },
    {
      "inputs": [
        {
          "internalType": "address",
          "name": "user",
          "type": "address"
        }
      ],
      "name": "getUserProfile",
      "outputs": [
        {
          "components": [
            {
              "internalType": "string",
              "name": "name",
              "type": "string"
            },
            {
              "internalType": "bool",
              "name": "pronoun",
              "type": "bool"
            },
            {
              "internalType": "string",
              "name": "description",
              "type": "string"
            },
            {
              "internalType": "string",
              "name": "organisation",
              "type": "string"
            },
            {
              "internalType": "string",
              "name": "lives",
              "type": "string"
            },
            {
              "internalType": "string",
              "name": "about",
              "type": "string"
            },
            {
              "internalType": "string[]",
              "name": "skills",
              "type": "string[]"
            },
            {
              "internalType": "string",
              "name": "image",
              "type": "string"
            }
          ],
          "internalType": "struct chatapp.Profile",
          "name": "",
          "type": "tuple"
        }
      ],
      "stateMutability": "view",
      "type": "function"
    },
    {
      "inputs": [
        {
          "internalType": "address",
          "name": "author",
          "type": "address"
        },
        {
          "internalType": "uint256",
          "name": "id",
          "type": "uint256"
        }
      ],
      "name": "likePost",
      "outputs": [],
      "stateMutability": "nonpayable",
      "type": "function"
    },
    {
      "inputs": [],
      "name": "owner",
      "outputs": [
        {
          "internalType": "address",
          "name": "",
          "type": "address"
        }
      ],
      "stateMutability": "view",
      "type": "function"
    },
    {
      "inputs": [
        {
          "internalType": "address",
          "name": "user",
          "type": "address"
        }
      ],
      "name": "rejectFriendRequest",
      "outputs": [],
      "stateMutability": "nonpayable",
      "type": "function"
    },
    {
      "inputs": [
        {
          "internalType": "address",
          "name": "to",
          "type": "address"
        }
      ],
      "name": "sendFriendRequest",
      "outputs": [],
      "stateMutability": "nonpayable",
      "type": "function"
    },
    {
      "inputs": [
        {
          "internalType": "string",
          "name": "_description",
          "type": "string"
        }
      ],
      "name": "updateDesc",
      "outputs": [],
      "stateMutability": "nonpayable",
      "type": "function"
    },
    {
      "inputs": [
        {
          "internalType": "string",
          "name": "_name",
          "type": "string"
        },
        {
          "internalType": "string",
          "name": "_lives",
          "type": "string"
        },
        {
          "internalType": "string",
          "name": "_organisation",
          "type": "string"
        },
        {
          "internalType": "string",
          "name": "_about",
          "type": "string"
        }
      ],
      "name": "updateProfile",
      "outputs": [],
      "stateMutability": "nonpayable",
      "type": "function"
    },
    {
      "inputs": [
        {
          "internalType": "string",
          "name": "_newSkill",
          "type": "string"
        }
      ],
      "name": "updateSkills",
      "outputs": [],
      "stateMutability": "nonpayable",
      "type": "function"
    },
    {
      "inputs": [
        {
          "internalType": "address",
          "name": "",
          "type": "address"
        }
      ],
      "name": "userProfile",
      "outputs": [
        {
          "internalType": "string",
          "name": "name",
          "type": "string"
        },
        {
          "internalType": "bool",
          "name": "pronoun",
          "type": "bool"
        },
        {
          "internalType": "string",
          "name": "description",
          "type": "string"
        },
        {
          "internalType": "string",
          "name": "organisation",
          "type": "string"
        },
        {
          "internalType": "string",
          "name": "lives",
          "type": "string"
        },
        {
          "internalType": "string",
          "name": "about",
          "type": "string"
        },
        {
          "internalType": "string",
          "name": "image",
          "type": "string"
        }
      ],
      "stateMutability": "view",
      "type": "function"
    }
  ],
  "bytecode": "0x608060405234801561001057600080fd5b50336000806101000a81548173ffffffffffffffffffffffffffffffffffffffff021916908373ffffffffffffffffffffffffffffffffffffffff1602179055506137cc806100606000396000f3fe608060405234801561001057600080fd5b50600436106100ea5760003560e01c80639483f25c1161008c578063a9f5646611610066578063a9f564661461025f578063b02c65161461027b578063c0015f4f14610297578063c3abe4f6146102b3576100ea565b80639483f25c146101f7578063955af0e814610213578063987ee1561461022f576100ea565b80634fbf35ad116100c85780634fbf35ad146101715780636c78184d1461018d578063837b770a146101bd5780638da5cb5b146101d9576100ea565b80631c8e8962146100ef57806348351529146101255780634caf9d0b14610141575b600080fd5b610109600480360381019061010491906124ff565b6102cf565b60405161011c97969594939291906125d7565b60405180910390f35b61013f600480360381019061013a91906126a6565b61064e565b005b61015b600480360381019061015691906124ff565b61078f565b6040516101689190612a46565b60405180910390f35b61018b60048036038101906101869190612b9d565b610b2d565b005b6101a760048036038101906101a291906124ff565b610bc6565b6040516101b49190612cd7565b60405180910390f35b6101d760048036038101906101d291906124ff565b610d1a565b005b6101e1610fa8565b6040516101ee9190612d08565b60405180910390f35b610211600480360381019061020c9190612d23565b610fcc565b005b61022d60048036038101906102289190612f0c565b611158565b005b610249600480360381019061024491906124ff565b6112a1565b604051610256919061316f565b60405180910390f35b610279600480360381019061027491906124ff565b61175b565b005b61029560048036038101906102909190613191565b6118d0565b005b6102b160048036038101906102ac91906124ff565b611bc6565b005b6102cd60048036038101906102c89190612b9d565b611bfb565b005b60016020528060005260406000206000915090508060000180546102f290613238565b80601f016020809104026020016040519081016040528092919081815260200182805461031e90613238565b801561036b5780601f106103405761010080835404028352916020019161036b565b820191906000526020600020905b81548152906001019060200180831161034e57829003601f168201915b5050505050908060010160009054906101000a900460ff169080600201805461039390613238565b80601f01602080910402602001604051908101604052809291908181526020018280546103bf90613238565b801561040c5780601f106103e15761010080835404028352916020019161040c565b820191906000526020600020905b8154815290600101906020018083116103ef57829003601f168201915b50505050509080600301805461042190613238565b80601f016020809104026020016040519081016040528092919081815260200182805461044d90613238565b801561049a5780601f1061046f5761010080835404028352916020019161049a565b820191906000526020600020905b81548152906001019060200180831161047d57829003601f168201915b5050505050908060040180546104af90613238565b80601f01602080910402602001604051908101604052809291908181526020018280546104db90613238565b80156105285780601f106104fd57610100808354040283529160200191610528565b820191906000526020600020905b81548152906001019060200180831161050b57829003601f168201915b50505050509080600501805461053d90613238565b80601f016020809104026020016040519081016040528092919081815260200182805461056990613238565b80156105b65780601f1061058b576101008083540402835291602001916105b6565b820191906000526020600020905b81548152906001019060200180831161059957829003601f168201915b5050505050908060070180546105cb90613238565b80601f01602080910402602001604051908101604052809291908181526020018280546105f790613238565b80156106445780601f1061061957610100808354040283529160200191610644565b820191906000526020600020905b81548152906001019060200180831161062757829003601f168201915b5050505050905087565b6001600460008473ffffffffffffffffffffffffffffffffffffffff1673ffffffffffffffffffffffffffffffffffffffff16815260200190815260200160002082815481106106a1576106a0613269565b5b906000526020600020906008020160050160008282546106c191906132c7565b92505081905550600460008373ffffffffffffffffffffffffffffffffffffffff1673ffffffffffffffffffffffffffffffffffffffff168152602001908152602001600020818154811061071957610718613269565b5b9060005260206000209060080201600701339080600181540180825580915050600190039060005260206000200160009091909190916101000a81548173ffffffffffffffffffffffffffffffffffffffff021916908373ffffffffffffffffffffffffffffffffffffffff1602179055505050565b6060600460008373ffffffffffffffffffffffffffffffffffffffff1673ffffffffffffffffffffffffffffffffffffffff168152602001908152602001600020805480602002602001604051908101604052809291908181526020016000905b82821015610b22578382906000526020600020906008020160405180610100016040529081600082015481526020016001820160009054906101000a900473ffffffffffffffffffffffffffffffffffffffff1673ffffffffffffffffffffffffffffffffffffffff1673ffffffffffffffffffffffffffffffffffffffff16815260200160028201805461088490613238565b80601f01602080910402602001604051908101604052809291908181526020018280546108b090613238565b80156108fd5780601f106108d2576101008083540402835291602001916108fd565b820191906000526020600020905b8154815290600101906020018083116108e057829003601f168201915b5050505050815260200160038201805461091690613238565b80601f016020809104026020016040519081016040528092919081815260200182805461094290613238565b801561098f5780601f106109645761010080835404028352916020019161098f565b820191906000526020600020905b81548152906001019060200180831161097257829003601f168201915b50505050508152602001600482015481526020016005820154815260200160068201805480602002602001604051908101604052809291908181526020016000905b82821015610a7d5783829060005260206000200180546109f090613238565b80601f0160208091040260200160405190810160405280929190818152602001828054610a1c90613238565b8015610a695780601f10610a3e57610100808354040283529160200191610a69565b820191906000526020600020905b815481529060010190602001808311610a4c57829003601f168201915b5050505050815260200190600101906109d1565b50505050815260200160078201805480602002602001604051908101604052809291908181526020018280548015610b0a57602002820191906000526020600020905b8160009054906101000a900473ffffffffffffffffffffffffffffffffffffffff1673ffffffffffffffffffffffffffffffffffffffff1681526020019060010190808311610ac0575b505050505081525050815260200190600101906107f0565b505050509050919050565b806000815111610b72576040517f08c379a0000000000000000000000000000000000000000000000000000000008152600401610b6990613347565b60405180910390fd5b81600160003373ffffffffffffffffffffffffffffffffffffffff1673ffffffffffffffffffffffffffffffffffffffff1681526020019081526020016000206002019081610bc19190613513565b505050565b6060600360008373ffffffffffffffffffffffffffffffffffffffff1673ffffffffffffffffffffffffffffffffffffffff168152602001908152602001600020805480602002602001604051908101604052809291908181526020016000905b82821015610d0f57838290600052602060002090600302016040518060600160405290816000820160009054906101000a900473ffffffffffffffffffffffffffffffffffffffff1673ffffffffffffffffffffffffffffffffffffffff1673ffffffffffffffffffffffffffffffffffffffff1681526020016001820160009054906101000a900473ffffffffffffffffffffffffffffffffffffffff1673ffffffffffffffffffffffffffffffffffffffff1673ffffffffffffffffffffffffffffffffffffffff16815260200160028201548152505081526020019060010190610c27565b505050509050919050565b600060405180606001604052803373ffffffffffffffffffffffffffffffffffffffff1681526020018373ffffffffffffffffffffffffffffffffffffffff168152602001428152509050600360008373ffffffffffffffffffffffffffffffffffffffff1673ffffffffffffffffffffffffffffffffffffffff16815260200190815260200160002081908060018154018082558091505060019003906000526020600020906003020160009091909190915060008201518160000160006101000a81548173ffffffffffffffffffffffffffffffffffffffff021916908373ffffffffffffffffffffffffffffffffffffffff16021790555060208201518160010160006101000a81548173ffffffffffffffffffffffffffffffffffffffff021916908373ffffffffffffffffffffffffffffffffffffffff160217905550604082015181600201555050600360003373ffffffffffffffffffffffffffffffffffffffff1673ffffffffffffffffffffffffffffffffffffffff16815260200190815260200160002081908060018154018082558091505060019003906000526020600020906003020160009091909190915060008201518160000160006101000a81548173ffffffffffffffffffffffffffffffffffffffff021916908373ffffffffffffffffffffffffffffffffffffffff16021790555060208201518160010160006101000a81548173ffffffffffffffffffffffffffffffffffffffff021916908373ffffffffffffffffffffffffffffffffffffffff1602179055506040820151816002015550507ffe5f3a0346c002a93fde61742ff0a38a5a847b30c2f04aff7f5ed5467dd4061d3383604051610f9c9291906135e5565b60405180910390a15050565b60008054906101000a900473ffffffffffffffffffffffffffffffffffffffff1681565b806000815111611011576040517f08c379a000000000000000000000000000000000000000000000000000000000815260040161100890613347565b60405180910390fd5b84600160003373ffffffffffffffffffffffffffffffffffffffff1673ffffffffffffffffffffffffffffffffffffffff16815260200190815260200160002060000190816110609190613513565b5083600160003373ffffffffffffffffffffffffffffffffffffffff1673ffffffffffffffffffffffffffffffffffffffff16815260200190815260200160002060040190816110b09190613513565b5082600160003373ffffffffffffffffffffffffffffffffffffffff1673ffffffffffffffffffffffffffffffffffffffff16815260200190815260200160002060030190816111009190613513565b5083600160003373ffffffffffffffffffffffffffffffffffffffff1673ffffffffffffffffffffffffffffffffffffffff16815260200190815260200160002060040190816111509190613513565b505050505050565b604051806101000160405280898152602001881515815260200187815260200186815260200185815260200184815260200183815260200182815250600160003373ffffffffffffffffffffffffffffffffffffffff1673ffffffffffffffffffffffffffffffffffffffff16815260200190815260200160002060008201518160000190816111e89190613513565b5060208201518160010160006101000a81548160ff021916908315150217905550604082015181600201908161121e9190613513565b5060608201518160030190816112349190613513565b50608082015181600401908161124a9190613513565b5060a08201518160050190816112609190613513565b5060c082015181600601908051906020019061127d9291906122e2565b5060e08201518160070190816112939190613513565b509050505050505050505050565b6112a961233b565b600160008373ffffffffffffffffffffffffffffffffffffffff1673ffffffffffffffffffffffffffffffffffffffff1681526020019081526020016000206040518061010001604052908160008201805461130490613238565b80601f016020809104026020016040519081016040528092919081815260200182805461133090613238565b801561137d5780601f106113525761010080835404028352916020019161137d565b820191906000526020600020905b81548152906001019060200180831161136057829003601f168201915b505050505081526020016001820160009054906101000a900460ff161515151581526020016002820180546113b190613238565b80601f01602080910402602001604051908101604052809291908181526020018280546113dd90613238565b801561142a5780601f106113ff5761010080835404028352916020019161142a565b820191906000526020600020905b81548152906001019060200180831161140d57829003601f168201915b5050505050815260200160038201805461144390613238565b80601f016020809104026020016040519081016040528092919081815260200182805461146f90613238565b80156114bc5780601f10611491576101008083540402835291602001916114bc565b820191906000526020600020905b81548152906001019060200180831161149f57829003601f168201915b505050505081526020016004820180546114d590613238565b80601f016020809104026020016040519081016040528092919081815260200182805461150190613238565b801561154e5780601f106115235761010080835404028352916020019161154e565b820191906000526020600020905b81548152906001019060200180831161153157829003601f168201915b5050505050815260200160058201805461156790613238565b80601f016020809104026020016040519081016040528092919081815260200182805461159390613238565b80156115e05780601f106115b5576101008083540402835291602001916115e0565b820191906000526020600020905b8154815290600101906020018083116115c357829003601f168201915b5050505050815260200160068201805480602002602001604051908101604052809291908181526020016000905b828210156116ba57838290600052602060002001805461162d90613238565b80601f016020809104026020016040519081016040528092919081815260200182805461165990613238565b80156116a65780601f1061167b576101008083540402835291602001916116a6565b820191906000526020600020905b81548152906001019060200180831161168957829003601f168201915b50505050508152602001906001019061160e565b5050505081526020016007820180546116d290613238565b80601f01602080910402602001604051908101604052809291908181526020018280546116fe90613238565b801561174b5780601f106117205761010080835404028352916020019161174b565b820191906000526020600020905b81548152906001019060200180831161172e57829003601f168201915b5050505050815250509050919050565b60006117678233611cb9565b90506117733382611e23565b600061177f8333612178565b905061178b8382611e23565b600260008473ffffffffffffffffffffffffffffffffffffffff1673ffffffffffffffffffffffffffffffffffffffff168152602001908152602001600020339080600181540180825580915050600190039060005260206000200160009091909190916101000a81548173ffffffffffffffffffffffffffffffffffffffff021916908373ffffffffffffffffffffffffffffffffffffffff160217905550600260003373ffffffffffffffffffffffffffffffffffffffff1673ffffffffffffffffffffffffffffffffffffffff168152602001908152602001600020839080600181540180825580915050600190039060005260206000200160009091909190916101000a81548173ffffffffffffffffffffffffffffffffffffffff021916908373ffffffffffffffffffffffffffffffffffffffff160217905550505050565b6000825111611914576040517f08c379a000000000000000000000000000000000000000000000000000000000815260040161190b9061365a565b60405180910390fd5b60008067ffffffffffffffff8111156119305761192f612a72565b5b60405190808252806020026020018201604052801561196357816020015b606081526020019060019003908161194e5790505b50905060008067ffffffffffffffff81111561198257611981612a72565b5b6040519080825280602002602001820160405280156119b05781602001602082028036833780820191505090505b5090506000604051806101000160405280600460003373ffffffffffffffffffffffffffffffffffffffff1673ffffffffffffffffffffffffffffffffffffffff1681526020019081526020016000208054905081526020013373ffffffffffffffffffffffffffffffffffffffff16815260200186815260200185815260200142815260200160008152602001848152602001838152509050600460003373ffffffffffffffffffffffffffffffffffffffff1673ffffffffffffffffffffffffffffffffffffffff1681526020019081526020016000208190806001815401808255809150506001900390600052602060002090600802016000909190919091506000820151816000015560208201518160010160006101000a81548173ffffffffffffffffffffffffffffffffffffffff021916908373ffffffffffffffffffffffffffffffffffffffff1602179055506040820151816002019081611b199190613513565b506060820151816003019081611b2f9190613513565b506080820151816004015560a0820151816005015560c0820151816006019080519060200190611b609291906122e2565b5060e0820151816007019080519060200190611b7d929190612382565b5050507fd8ba4f273ef6a931f13dc691474b7c1f96c178aa14cbb5138b49c33ecf06f31033868360800151604051611bb793929190613689565b60405180910390a15050505050565b6000611bd28233611cb9565b9050611bde3382611e23565b6000611bea8333612178565b9050611bf68382611e23565b505050565b806000815111611c40576040517f08c379a0000000000000000000000000000000000000000000000000000000008152600401611c3790613347565b60405180910390fd5b600160003373ffffffffffffffffffffffffffffffffffffffff1673ffffffffffffffffffffffffffffffffffffffff16815260200190815260200160002060060182908060018154018082558091505060019003906000526020600020016000909190919091509081611cb49190613513565b505050565b600080600090505b600360008473ffffffffffffffffffffffffffffffffffffffff1673ffffffffffffffffffffffffffffffffffffffff16815260200190815260200160002080549050811015611dd6578373ffffffffffffffffffffffffffffffffffffffff16600360008573ffffffffffffffffffffffffffffffffffffffff1673ffffffffffffffffffffffffffffffffffffffff1681526020019081526020016000208281548110611d7357611d72613269565b5b906000526020600020906003020160000160009054906101000a900473ffffffffffffffffffffffffffffffffffffffff1673ffffffffffffffffffffffffffffffffffffffff1603611dc95780915050611e1d565b8080600101915050611cc1565b50600360008373ffffffffffffffffffffffffffffffffffffffff1673ffffffffffffffffffffffffffffffffffffffff1681526020019081526020016000208054905090505b92915050565b600360008373ffffffffffffffffffffffffffffffffffffffff1673ffffffffffffffffffffffffffffffffffffffff168152602001908152602001600020805490508110611ea7576040517f08c379a0000000000000000000000000000000000000000000000000000000008152600401611e9e90613713565b60405180910390fd5b60008190505b6001600360008573ffffffffffffffffffffffffffffffffffffffff1673ffffffffffffffffffffffffffffffffffffffff16815260200190815260200160002080549050611efc9190613733565b8110156120b557600360008473ffffffffffffffffffffffffffffffffffffffff1673ffffffffffffffffffffffffffffffffffffffff168152602001908152602001600020600182611f4f91906132c7565b81548110611f6057611f5f613269565b5b9060005260206000209060030201600360008573ffffffffffffffffffffffffffffffffffffffff1673ffffffffffffffffffffffffffffffffffffffff1681526020019081526020016000208281548110611fbf57611fbe613269565b5b90600052602060002090600302016000820160009054906101000a900473ffffffffffffffffffffffffffffffffffffffff168160000160006101000a81548173ffffffffffffffffffffffffffffffffffffffff021916908373ffffffffffffffffffffffffffffffffffffffff1602179055506001820160009054906101000a900473ffffffffffffffffffffffffffffffffffffffff168160010160006101000a81548173ffffffffffffffffffffffffffffffffffffffff021916908373ffffffffffffffffffffffffffffffffffffffff160217905550600282015481600201559050508080600101915050611ead565b50600360008373ffffffffffffffffffffffffffffffffffffffff1673ffffffffffffffffffffffffffffffffffffffff16815260200190815260200160002080548061210557612104613767565b5b6001900381819060005260206000209060030201600080820160006101000a81549073ffffffffffffffffffffffffffffffffffffffff02191690556001820160006101000a81549073ffffffffffffffffffffffffffffffffffffffff02191690556002820160009055505090555050565b600080600090505b600360008573ffffffffffffffffffffffffffffffffffffffff1673ffffffffffffffffffffffffffffffffffffffff16815260200190815260200160002080549050811015612295578273ffffffffffffffffffffffffffffffffffffffff16600360008673ffffffffffffffffffffffffffffffffffffffff1673ffffffffffffffffffffffffffffffffffffffff168152602001908152602001600020828154811061223257612231613269565b5b906000526020600020906003020160010160009054906101000a900473ffffffffffffffffffffffffffffffffffffffff1673ffffffffffffffffffffffffffffffffffffffff160361228857809150506122dc565b8080600101915050612180565b50600360008473ffffffffffffffffffffffffffffffffffffffff1673ffffffffffffffffffffffffffffffffffffffff1681526020019081526020016000208054905090505b92915050565b82805482825590600052602060002090810192821561232a579160200282015b828111156123295782518290816123199190613513565b5091602001919060010190612302565b5b509050612337919061240c565b5090565b604051806101000160405280606081526020016000151581526020016060815260200160608152602001606081526020016060815260200160608152602001606081525090565b8280548282559060005260206000209081019282156123fb579160200282015b828111156123fa5782518260006101000a81548173ffffffffffffffffffffffffffffffffffffffff021916908373ffffffffffffffffffffffffffffffffffffffff160217905550916020019190600101906123a2565b5b5090506124089190612430565b5090565b5b8082111561242c5760008181612423919061244d565b5060010161240d565b5090565b5b80821115612449576000816000905550600101612431565b5090565b50805461245990613238565b6000825580601f1061246b575061248a565b601f0160209004906000526020600020908101906124899190612430565b5b50565b6000604051905090565b600080fd5b600080fd5b600073ffffffffffffffffffffffffffffffffffffffff82169050919050565b60006124cc826124a1565b9050919050565b6124dc816124c1565b81146124e757600080fd5b50565b6000813590506124f9816124d3565b92915050565b60006020828403121561251557612514612497565b5b6000612523848285016124ea565b91505092915050565b600081519050919050565b600082825260208201905092915050565b60005b8381101561256657808201518184015260208101905061254b565b60008484015250505050565b6000601f19601f8301169050919050565b600061258e8261252c565b6125988185612537565b93506125a8818560208601612548565b6125b181612572565b840191505092915050565b60008115159050919050565b6125d1816125bc565b82525050565b600060e08201905081810360008301526125f1818a612583565b905061260060208301896125c8565b81810360408301526126128188612583565b905081810360608301526126268187612583565b9050818103608083015261263a8186612583565b905081810360a083015261264e8185612583565b905081810360c08301526126628184612583565b905098975050505050505050565b6000819050919050565b61268381612670565b811461268e57600080fd5b50565b6000813590506126a08161267a565b92915050565b600080604083850312156126bd576126bc612497565b5b60006126cb858286016124ea565b92505060206126dc85828601612691565b9150509250929050565b600081519050919050565b600082825260208201905092915050565b6000819050602082019050919050565b61271b81612670565b82525050565b61272a816124c1565b82525050565b600082825260208201905092915050565b600061274c8261252c565b6127568185612730565b9350612766818560208601612548565b61276f81612572565b840191505092915050565b600081519050919050565b600082825260208201905092915050565b6000819050602082019050919050565b60006127b28383612741565b905092915050565b6000602082019050919050565b60006127d28261277a565b6127dc8185612785565b9350836020820285016127ee85612796565b8060005b8581101561282a578484038952815161280b85826127a6565b9450612816836127ba565b925060208a019950506001810190506127f2565b50829750879550505050505092915050565b600081519050919050565b600082825260208201905092915050565b6000819050602082019050919050565b60006128748383612721565b60208301905092915050565b6000602082019050919050565b60006128988261283c565b6128a28185612847565b93506128ad83612858565b8060005b838110156128de5781516128c58882612868565b97506128d083612880565b9250506001810190506128b1565b5085935050505092915050565b6000610100830160008301516129046000860182612712565b5060208301516129176020860182612721565b506040830151848203604086015261292f8282612741565b915050606083015184820360608601526129498282612741565b915050608083015161295e6080860182612712565b5060a083015161297160a0860182612712565b5060c083015184820360c086015261298982826127c7565b91505060e083015184820360e08601526129a3828261288d565b9150508091505092915050565b60006129bc83836128eb565b905092915050565b6000602082019050919050565b60006129dc826126e6565b6129e681856126f1565b9350836020820285016129f885612702565b8060005b85811015612a345784840389528151612a1585826129b0565b9450612a20836129c4565b925060208a019950506001810190506129fc565b50829750879550505050505092915050565b60006020820190508181036000830152612a6081846129d1565b905092915050565b600080fd5b600080fd5b7f4e487b7100000000000000000000000000000000000000000000000000000000600052604160045260246000fd5b612aaa82612572565b810181811067ffffffffffffffff82111715612ac957612ac8612a72565b5b80604052505050565b6000612adc61248d565b9050612ae88282612aa1565b919050565b600067ffffffffffffffff821115612b0857612b07612a72565b5b612b1182612572565b9050602081019050919050565b82818337600083830152505050565b6000612b40612b3b84612aed565b612ad2565b905082815260208101848484011115612b5c57612b5b612a6d565b5b612b67848285612b1e565b509392505050565b600082601f830112612b8457612b83612a68565b5b8135612b94848260208601612b2d565b91505092915050565b600060208284031215612bb357612bb2612497565b5b600082013567ffffffffffffffff811115612bd157612bd061249c565b5b612bdd84828501612b6f565b91505092915050565b600081519050919050565b600082825260208201905092915050565b6000819050602082019050919050565b606082016000820151612c286000850182612721565b506020820151612c3b6020850182612721565b506040820151612c4e6040850182612712565b50505050565b6000612c608383612c12565b60608301905092915050565b6000602082019050919050565b6000612c8482612be6565b612c8e8185612bf1565b9350612c9983612c02565b8060005b83811015612cca578151612cb18882612c54565b9750612cbc83612c6c565b925050600181019050612c9d565b5085935050505092915050565b60006020820190508181036000830152612cf18184612c79565b905092915050565b612d02816124c1565b82525050565b6000602082019050612d1d6000830184612cf9565b92915050565b60008060008060808587031215612d3d57612d3c612497565b5b600085013567ffffffffffffffff811115612d5b57612d5a61249c565b5b612d6787828801612b6f565b945050602085013567ffffffffffffffff811115612d8857612d8761249c565b5b612d9487828801612b6f565b935050604085013567ffffffffffffffff811115612db557612db461249c565b5b612dc187828801612b6f565b925050606085013567ffffffffffffffff811115612de257612de161249c565b5b612dee87828801612b6f565b91505092959194509250565b612e03816125bc565b8114612e0e57600080fd5b50565b600081359050612e2081612dfa565b92915050565b600067ffffffffffffffff821115612e4157612e40612a72565b5b602082029050602081019050919050565b600080fd5b6000612e6a612e6584612e26565b612ad2565b90508083825260208201905060208402830185811115612e8d57612e8c612e52565b5b835b81811015612ed457803567ffffffffffffffff811115612eb257612eb1612a68565b5b808601612ebf8982612b6f565b85526020850194505050602081019050612e8f565b5050509392505050565b600082601f830112612ef357612ef2612a68565b5b8135612f03848260208601612e57565b91505092915050565b600080600080600080600080610100898b031215612f2d57612f2c612497565b5b600089013567ffffffffffffffff811115612f4b57612f4a61249c565b5b612f578b828c01612b6f565b9850506020612f688b828c01612e11565b975050604089013567ffffffffffffffff811115612f8957612f8861249c565b5b612f958b828c01612b6f565b965050606089013567ffffffffffffffff811115612fb657612fb561249c565b5b612fc28b828c01612b6f565b955050608089013567ffffffffffffffff811115612fe357612fe261249c565b5b612fef8b828c01612b6f565b94505060a089013567ffffffffffffffff8111156130105761300f61249c565b5b61301c8b828c01612b6f565b93505060c089013567ffffffffffffffff81111561303d5761303c61249c565b5b6130498b828c01612ede565b92505060e089013567ffffffffffffffff81111561306a5761306961249c565b5b6130768b828c01612b6f565b9150509295985092959890939650565b61308f816125bc565b82525050565b60006101008301600083015184820360008601526130b38282612741565b91505060208301516130c86020860182613086565b50604083015184820360408601526130e08282612741565b915050606083015184820360608601526130fa8282612741565b915050608083015184820360808601526131148282612741565b91505060a083015184820360a086015261312e8282612741565b91505060c083015184820360c086015261314882826127c7565b91505060e083015184820360e08601526131628282612741565b9150508091505092915050565b600060208201905081810360008301526131898184613095565b905092915050565b600080604083850312156131a8576131a7612497565b5b600083013567ffffffffffffffff8111156131c6576131c561249c565b5b6131d285828601612b6f565b925050602083013567ffffffffffffffff8111156131f3576131f261249c565b5b6131ff85828601612b6f565b9150509250929050565b7f4e487b7100000000000000000000000000000000000000000000000000000000600052602260045260246000fd5b6000600282049050600182168061325057607f821691505b60208210810361326357613262613209565b5b50919050565b7f4e487b7100000000000000000000000000000000000000000000000000000000600052603260045260246000fd5b7f4e487b7100000000000000000000000000000000000000000000000000000000600052601160045260246000fd5b60006132d282612670565b91506132dd83612670565b92508282019050808211156132f5576132f4613298565b5b92915050565b7f656d707479207465787400000000000000000000000000000000000000000000600082015250565b6000613331600a83612537565b915061333c826132fb565b602082019050919050565b6000602082019050818103600083015261336081613324565b9050919050565b60008190508160005260206000209050919050565b60006020601f8301049050919050565b600082821b905092915050565b6000600883026133c97fffffffffffffffffffffffffffffffffffffffffffffffffffffffffffffffff8261338c565b6133d3868361338c565b95508019841693508086168417925050509392505050565b6000819050919050565b600061341061340b61340684612670565b6133eb565b612670565b9050919050565b6000819050919050565b61342a836133f5565b61343e61343682613417565b848454613399565b825550505050565b600090565b613453613446565b61345e818484613421565b505050565b5b818110156134825761347760008261344b565b600181019050613464565b5050565b601f8211156134c75761349881613367565b6134a18461337c565b810160208510156134b0578190505b6134c46134bc8561337c565b830182613463565b50505b505050565b600082821c905092915050565b60006134ea600019846008026134cc565b1980831691505092915050565b600061350383836134d9565b9150826002028217905092915050565b61351c8261252c565b67ffffffffffffffff81111561353557613534612a72565b5b61353f8254613238565b61354a828285613486565b600060209050601f83116001811461357d576000841561356b578287015190505b61357585826134f7565b8655506135dd565b601f19841661358b86613367565b60005b828110156135b35784890151825560018201915060208501945060208101905061358e565b868310156135d057848901516135cc601f8916826134d9565b8355505b6001600288020188555050505b505050505050565b60006040820190506135fa6000830185612cf9565b6136076020830184612cf9565b9392505050565b7f636f6e74656e74206d757374206e6f7420626520656d70747900000000000000600082015250565b6000613644601983612537565b915061364f8261360e565b602082019050919050565b6000602082019050818103600083015261367381613637565b9050919050565b61368381612670565b82525050565b600060608201905061369e6000830186612cf9565b81810360208301526136b08185612583565b90506136bf604083018461367a565b949350505050565b7f496e76616c6964207265717565737420696e6465782e00000000000000000000600082015250565b60006136fd601683612537565b9150613708826136c7565b602082019050919050565b6000602082019050818103600083015261372c816136f0565b9050919050565b600061373e82612670565b915061374983612670565b925082820390508181111561376157613760613298565b5b92915050565b7f4e487b7100000000000000000000000000000000000000000000000000000000600052603160045260246000fdfea26469706673582212203a9e2165d17ac7703c8c734d70b251a80168a55cc4cf6a07baf9a7037f82459464736f6c63430008180033",
  "linkReferences": {},
  "deployedLinkReferences": {}
}