{
  "_format": "hh-sol-artifact-1",
  "contractName": "chatapp",
  "sourceName": "contracts/ChatApp.sol",
  "abi": [
    {
      "inputs": [],
      "stateMutability": "nonpayable",
      "type": "constructor"
    },
    {
      "anonymous": false,
      "inputs": [
        {
          "indexed": false,
          "internalType": "address",
          "name": "author",
          "type": "address"
        },
        {
          "indexed": false,
          "internalType": "string",
          "name": "content",
          "type": "string"
        },
        {
          "indexed": false,
          "internalType": "uint256",
          "name": "time",
          "type": "uint256"
        }
      ],
      "name": "Post_added",
      "type": "event"
    },
    {
      "anonymous": false,
      "inputs": [
        {
          "indexed": false,
          "internalType": "address",
          "name": "author",
          "type": "address"
        }
      ],
      "name": "like_added",
      "type": "event"
    },
    {
      "anonymous": false,
      "inputs": [
        {
          "indexed": false,
          "internalType": "address",
          "name": "from",
          "type": "address"
        },
        {
          "indexed": false,
          "internalType": "address",
          "name": "to",
          "type": "address"
        }
      ],
      "name": "request_event",
      "type": "event"
    },
    {
      "inputs": [
        {
          "internalType": "address",
          "name": "user",
          "type": "address"
        }
      ],
      "name": "acceptFriendRequest",
      "outputs": [],
      "stateMutability": "nonpayable",
      "type": "function"
    },
    {
      "inputs": [
        {
          "internalType": "string",
          "name": "content",
          "type": "string"
        },
        {
          "internalType": "string",
          "name": "image",
          "type": "string"
        }
      ],
      "name": "addPost",
      "outputs": [],
      "stateMutability": "nonpayable",
      "type": "function"
    },
    {
      "inputs": [
        {
          "internalType": "string",
          "name": "_name",
          "type": "string"
        },
        {
          "internalType": "bool",
          "name": "_pronoun",
          "type": "bool"
        },
        {
          "internalType": "string",
          "name": "_description",
          "type": "string"
        },
        {
          "internalType": "string",
          "name": "_organisation",
          "type": "string"
        },
        {
          "internalType": "string",
          "name": "_lives",
          "type": "string"
        },
        {
          "internalType": "string",
          "name": "_about",
          "type": "string"
        },
        {
          "internalType": "string[]",
          "name": "_skills",
          "type": "string[]"
        },
        {
          "internalType": "string",
          "name": "_image",
          "type": "string"
        }
      ],
      "name": "createProfile",
      "outputs": [],
      "stateMutability": "nonpayable",
      "type": "function"
    },
    {
      "inputs": [
        {
          "internalType": "address",
          "name": "user",
          "type": "address"
        }
      ],
      "name": "getAllRequests",
      "outputs": [
        {
          "components": [
            {
              "internalType": "address",
              "name": "from",
              "type": "address"
            },
            {
              "internalType": "address",
              "name": "to",
              "type": "address"
            },
            {
              "internalType": "uint256",
              "name": "time",
              "type": "uint256"
            }
          ],
          "internalType": "struct chatapp.request[]",
          "name": "",
          "type": "tuple[]"
        }
      ],
      "stateMutability": "view",
      "type": "function"
    },
    {
      "inputs": [
        {
          "internalType": "address",
          "name": "user",
          "type": "address"
        }
      ],
      "name": "getPosts",
      "outputs": [
        {
          "components": [
            {
              "internalType": "uint256",
              "name": "id",
              "type": "uint256"
            },
            {
              "internalType": "address",
              "name": "author",
              "type": "address"
            },
            {
              "internalType": "string",
              "name": "content",
              "type": "string"
            },
            {
              "internalType": "string",
              "name": "image",
              "type": "string"
            },
            {
              "internalType": "uint256",
              "name": "time",
              "type": "uint256"
            },
            {
              "internalType": "uint256",
              "name": "likes",
              "type": "uint256"
            },
            {
              "internalType": "string[]",
              "name": "comments",
              "type": "string[]"
            },
            {
              "internalType": "address[]",
              "name": "users_liked",
              "type": "address[]"
            }
          ],
          "internalType": "struct chatapp.Post[]",
          "name": "",
          "type": "tuple[]"
        }
      ],
      "stateMutability": "view",
      "type": "function"
    },
    {
      "inputs": [
        {
          "internalType": "address",
          "name": "user",
          "type": "address"
        }
      ],
      "name": "getUserProfile",
      "outputs": [
        {
          "components": [
            {
              "internalType": "string",
              "name": "name",
              "type": "string"
            },
            {
              "internalType": "bool",
              "name": "pronoun",
              "type": "bool"
            },
            {
              "internalType": "string",
              "name": "description",
              "type": "string"
            },
            {
              "internalType": "string",
              "name": "organisation",
              "type": "string"
            },
            {
              "internalType": "string",
              "name": "lives",
              "type": "string"
            },
            {
              "internalType": "string",
              "name": "about",
              "type": "string"
            },
            {
              "internalType": "string[]",
              "name": "skills",
              "type": "string[]"
            },
            {
              "internalType": "string",
              "name": "image",
              "type": "string"
            }
          ],
          "internalType": "struct chatapp.Profile",
          "name": "",
          "type": "tuple"
        }
      ],
      "stateMutability": "view",
      "type": "function"
    },
    {
      "inputs": [
        {
          "internalType": "address",
          "name": "author",
          "type": "address"
        },
        {
          "internalType": "uint256",
          "name": "id",
          "type": "uint256"
        }
      ],
      "name": "likePost",
      "outputs": [],
      "stateMutability": "nonpayable",
      "type": "function"
    },
    {
      "inputs": [],
      "name": "owner",
      "outputs": [
        {
          "internalType": "address",
          "name": "",
          "type": "address"
        }
      ],
      "stateMutability": "view",
      "type": "function"
    },
    {
      "inputs": [
        {
          "internalType": "address",
          "name": "user",
          "type": "address"
        }
      ],
      "name": "rejectFriendRequest",
      "outputs": [],
      "stateMutability": "nonpayable",
      "type": "function"
    },
    {
      "inputs": [
        {
          "internalType": "address",
          "name": "to",
          "type": "address"
        }
      ],
      "name": "sendFriendRequest",
      "outputs": [],
      "stateMutability": "nonpayable",
      "type": "function"
    },
    {
      "inputs": [
        {
          "internalType": "address",
          "name": "author",
          "type": "address"
        }
      ],
      "name": "tipAuthor",
      "outputs": [],
      "stateMutability": "payable",
      "type": "function"
    },
    {
      "inputs": [
        {
          "internalType": "string",
          "name": "_description",
          "type": "string"
        }
      ],
      "name": "updateDesc",
      "outputs": [],
      "stateMutability": "nonpayable",
      "type": "function"
    },
    {
      "inputs": [
        {
          "internalType": "string",
          "name": "_name",
          "type": "string"
        },
        {
          "internalType": "string",
          "name": "_lives",
          "type": "string"
        },
        {
          "internalType": "string",
          "name": "_organisation",
          "type": "string"
        },
        {
          "internalType": "string",
          "name": "_about",
          "type": "string"
        }
      ],
      "name": "updateProfile",
      "outputs": [],
      "stateMutability": "nonpayable",
      "type": "function"
    },
    {
      "inputs": [
        {
          "internalType": "string",
          "name": "_newSkill",
          "type": "string"
        }
      ],
      "name": "updateSkills",
      "outputs": [],
      "stateMutability": "nonpayable",
      "type": "function"
    },
    {
      "inputs": [
        {
          "internalType": "address",
          "name": "",
          "type": "address"
        }
      ],
      "name": "userProfile",
      "outputs": [
        {
          "internalType": "string",
          "name": "name",
          "type": "string"
        },
        {
          "internalType": "bool",
          "name": "pronoun",
          "type": "bool"
        },
        {
          "internalType": "string",
          "name": "description",
          "type": "string"
        },
        {
          "internalType": "string",
          "name": "organisation",
          "type": "string"
        },
        {
          "internalType": "string",
          "name": "lives",
          "type": "string"
        },
        {
          "internalType": "string",
          "name": "about",
          "type": "string"
        },
        {
          "internalType": "string",
          "name": "image",
          "type": "string"
        }
      ],
      "stateMutability": "view",
      "type": "function"
    }
  ],
  "bytecode": "0x608060405234801561001057600080fd5b50336000806101000a81548173ffffffffffffffffffffffffffffffffffffffff021916908373ffffffffffffffffffffffffffffffffffffffff160217905550613bdb806100606000396000f3fe6080604052600436106100e85760003560e01c80638da5cb5b1161008a578063a9f5646611610059578063a9f56466146102fb578063b02c651614610324578063c0015f4f1461034d578063c3abe4f614610376576100e8565b80638da5cb5b146102415780639483f25c1461026c578063955af0e814610295578063987ee156146102be576100e8565b80634caf9d0b116100c65780634caf9d0b146101755780634fbf35ad146101b25780636c78184d146101db578063837b770a14610218576100e8565b806314435ac8146100ed5780631c8e896214610109578063483515291461014c575b600080fd5b610107600480360381019061010291906127f0565b61039f565b005b34801561011557600080fd5b50610130600480360381019061012b91906127f0565b6105c0565b60405161014397969594939291906128c8565b60405180910390f35b34801561015857600080fd5b50610173600480360381019061016e9190612997565b61093f565b005b34801561018157600080fd5b5061019c600480360381019061019791906127f0565b610a80565b6040516101a99190612d37565b60405180910390f35b3480156101be57600080fd5b506101d960048036038101906101d49190612e8e565b610e1e565b005b3480156101e757600080fd5b5061020260048036038101906101fd91906127f0565b610eb7565b60405161020f9190612fc8565b60405180910390f35b34801561022457600080fd5b5061023f600480360381019061023a91906127f0565b61100b565b005b34801561024d57600080fd5b50610256611299565b6040516102639190612ff9565b60405180910390f35b34801561027857600080fd5b50610293600480360381019061028e9190613014565b6112bd565b005b3480156102a157600080fd5b506102bc60048036038101906102b791906131fd565b611449565b005b3480156102ca57600080fd5b506102e560048036038101906102e091906127f0565b611592565b6040516102f29190613460565b60405180910390f35b34801561030757600080fd5b50610322600480360381019061031d91906127f0565b611a4c565b005b34801561033057600080fd5b5061034b60048036038101906103469190613482565b611bc1565b005b34801561035957600080fd5b50610374600480360381019061036f91906127f0565b611eb7565b005b34801561038257600080fd5b5061039d60048036038101906103989190612e8e565b611eec565b005b600073ffffffffffffffffffffffffffffffffffffffff168173ffffffffffffffffffffffffffffffffffffffff160361040e576040517f08c379a000000000000000000000000000000000000000000000000000000000815260040161040590613546565b60405180910390fd5b6000349050600060405180606001604052803373ffffffffffffffffffffffffffffffffffffffff168152602001348152602001428152509050600560008473ffffffffffffffffffffffffffffffffffffffff1673ffffffffffffffffffffffffffffffffffffffff16815260200190815260200160002081908060018154018082558091505060019003906000526020600020906003020160009091909190915060008201518160000160006101000a81548173ffffffffffffffffffffffffffffffffffffffff021916908373ffffffffffffffffffffffffffffffffffffffff1602179055506020820151816001015560408201518160020155505060008373ffffffffffffffffffffffffffffffffffffffff168360405161053490613597565b60006040518083038185875af1925050503d8060008114610571576040519150601f19603f3d011682016040523d82523d6000602084013e610576565b606091505b50509050806105ba576040517f08c379a00000000000000000000000000000000000000000000000000000000081526004016105b1906135f8565b60405180910390fd5b50505050565b60016020528060005260406000206000915090508060000180546105e390613647565b80601f016020809104026020016040519081016040528092919081815260200182805461060f90613647565b801561065c5780601f106106315761010080835404028352916020019161065c565b820191906000526020600020905b81548152906001019060200180831161063f57829003601f168201915b5050505050908060010160009054906101000a900460ff169080600201805461068490613647565b80601f01602080910402602001604051908101604052809291908181526020018280546106b090613647565b80156106fd5780601f106106d2576101008083540402835291602001916106fd565b820191906000526020600020905b8154815290600101906020018083116106e057829003601f168201915b50505050509080600301805461071290613647565b80601f016020809104026020016040519081016040528092919081815260200182805461073e90613647565b801561078b5780601f106107605761010080835404028352916020019161078b565b820191906000526020600020905b81548152906001019060200180831161076e57829003601f168201915b5050505050908060040180546107a090613647565b80601f01602080910402602001604051908101604052809291908181526020018280546107cc90613647565b80156108195780601f106107ee57610100808354040283529160200191610819565b820191906000526020600020905b8154815290600101906020018083116107fc57829003601f168201915b50505050509080600501805461082e90613647565b80601f016020809104026020016040519081016040528092919081815260200182805461085a90613647565b80156108a75780601f1061087c576101008083540402835291602001916108a7565b820191906000526020600020905b81548152906001019060200180831161088a57829003601f168201915b5050505050908060070180546108bc90613647565b80601f01602080910402602001604051908101604052809291908181526020018280546108e890613647565b80156109355780601f1061090a57610100808354040283529160200191610935565b820191906000526020600020905b81548152906001019060200180831161091857829003601f168201915b5050505050905087565b6001600460008473ffffffffffffffffffffffffffffffffffffffff1673ffffffffffffffffffffffffffffffffffffffff168152602001908152602001600020828154811061099257610991613678565b5b906000526020600020906008020160050160008282546109b291906136d6565b92505081905550600460008373ffffffffffffffffffffffffffffffffffffffff1673ffffffffffffffffffffffffffffffffffffffff1681526020019081526020016000208181548110610a0a57610a09613678565b5b9060005260206000209060080201600701339080600181540180825580915050600190039060005260206000200160009091909190916101000a81548173ffffffffffffffffffffffffffffffffffffffff021916908373ffffffffffffffffffffffffffffffffffffffff1602179055505050565b6060600460008373ffffffffffffffffffffffffffffffffffffffff1673ffffffffffffffffffffffffffffffffffffffff168152602001908152602001600020805480602002602001604051908101604052809291908181526020016000905b82821015610e13578382906000526020600020906008020160405180610100016040529081600082015481526020016001820160009054906101000a900473ffffffffffffffffffffffffffffffffffffffff1673ffffffffffffffffffffffffffffffffffffffff1673ffffffffffffffffffffffffffffffffffffffff168152602001600282018054610b7590613647565b80601f0160208091040260200160405190810160405280929190818152602001828054610ba190613647565b8015610bee5780601f10610bc357610100808354040283529160200191610bee565b820191906000526020600020905b815481529060010190602001808311610bd157829003601f168201915b50505050508152602001600382018054610c0790613647565b80601f0160208091040260200160405190810160405280929190818152602001828054610c3390613647565b8015610c805780601f10610c5557610100808354040283529160200191610c80565b820191906000526020600020905b815481529060010190602001808311610c6357829003601f168201915b50505050508152602001600482015481526020016005820154815260200160068201805480602002602001604051908101604052809291908181526020016000905b82821015610d6e578382906000526020600020018054610ce190613647565b80601f0160208091040260200160405190810160405280929190818152602001828054610d0d90613647565b8015610d5a5780601f10610d2f57610100808354040283529160200191610d5a565b820191906000526020600020905b815481529060010190602001808311610d3d57829003601f168201915b505050505081526020019060010190610cc2565b50505050815260200160078201805480602002602001604051908101604052809291908181526020018280548015610dfb57602002820191906000526020600020905b8160009054906101000a900473ffffffffffffffffffffffffffffffffffffffff1673ffffffffffffffffffffffffffffffffffffffff1681526020019060010190808311610db1575b50505050508152505081526020019060010190610ae1565b505050509050919050565b806000815111610e63576040517f08c379a0000000000000000000000000000000000000000000000000000000008152600401610e5a90613756565b60405180910390fd5b81600160003373ffffffffffffffffffffffffffffffffffffffff1673ffffffffffffffffffffffffffffffffffffffff1681526020019081526020016000206002019081610eb29190613922565b505050565b6060600360008373ffffffffffffffffffffffffffffffffffffffff1673ffffffffffffffffffffffffffffffffffffffff168152602001908152602001600020805480602002602001604051908101604052809291908181526020016000905b8282101561100057838290600052602060002090600302016040518060600160405290816000820160009054906101000a900473ffffffffffffffffffffffffffffffffffffffff1673ffffffffffffffffffffffffffffffffffffffff1673ffffffffffffffffffffffffffffffffffffffff1681526020016001820160009054906101000a900473ffffffffffffffffffffffffffffffffffffffff1673ffffffffffffffffffffffffffffffffffffffff1673ffffffffffffffffffffffffffffffffffffffff16815260200160028201548152505081526020019060010190610f18565b505050509050919050565b600060405180606001604052803373ffffffffffffffffffffffffffffffffffffffff1681526020018373ffffffffffffffffffffffffffffffffffffffff168152602001428152509050600360008373ffffffffffffffffffffffffffffffffffffffff1673ffffffffffffffffffffffffffffffffffffffff16815260200190815260200160002081908060018154018082558091505060019003906000526020600020906003020160009091909190915060008201518160000160006101000a81548173ffffffffffffffffffffffffffffffffffffffff021916908373ffffffffffffffffffffffffffffffffffffffff16021790555060208201518160010160006101000a81548173ffffffffffffffffffffffffffffffffffffffff021916908373ffffffffffffffffffffffffffffffffffffffff160217905550604082015181600201555050600360003373ffffffffffffffffffffffffffffffffffffffff1673ffffffffffffffffffffffffffffffffffffffff16815260200190815260200160002081908060018154018082558091505060019003906000526020600020906003020160009091909190915060008201518160000160006101000a81548173ffffffffffffffffffffffffffffffffffffffff021916908373ffffffffffffffffffffffffffffffffffffffff16021790555060208201518160010160006101000a81548173ffffffffffffffffffffffffffffffffffffffff021916908373ffffffffffffffffffffffffffffffffffffffff1602179055506040820151816002015550507ffe5f3a0346c002a93fde61742ff0a38a5a847b30c2f04aff7f5ed5467dd4061d338360405161128d9291906139f4565b60405180910390a15050565b60008054906101000a900473ffffffffffffffffffffffffffffffffffffffff1681565b806000815111611302576040517f08c379a00000000000000000000000000000000000000000000000000000000081526004016112f990613756565b60405180910390fd5b84600160003373ffffffffffffffffffffffffffffffffffffffff1673ffffffffffffffffffffffffffffffffffffffff16815260200190815260200160002060000190816113519190613922565b5083600160003373ffffffffffffffffffffffffffffffffffffffff1673ffffffffffffffffffffffffffffffffffffffff16815260200190815260200160002060040190816113a19190613922565b5082600160003373ffffffffffffffffffffffffffffffffffffffff1673ffffffffffffffffffffffffffffffffffffffff16815260200190815260200160002060030190816113f19190613922565b5081600160003373ffffffffffffffffffffffffffffffffffffffff1673ffffffffffffffffffffffffffffffffffffffff16815260200190815260200160002060050190816114419190613922565b505050505050565b604051806101000160405280898152602001881515815260200187815260200186815260200185815260200184815260200183815260200182815250600160003373ffffffffffffffffffffffffffffffffffffffff1673ffffffffffffffffffffffffffffffffffffffff16815260200190815260200160002060008201518160000190816114d99190613922565b5060208201518160010160006101000a81548160ff021916908315150217905550604082015181600201908161150f9190613922565b5060608201518160030190816115259190613922565b50608082015181600401908161153b9190613922565b5060a08201518160050190816115519190613922565b5060c082015181600601908051906020019061156e9291906125d3565b5060e08201518160070190816115849190613922565b509050505050505050505050565b61159a61262c565b600160008373ffffffffffffffffffffffffffffffffffffffff1673ffffffffffffffffffffffffffffffffffffffff168152602001908152602001600020604051806101000160405290816000820180546115f590613647565b80601f016020809104026020016040519081016040528092919081815260200182805461162190613647565b801561166e5780601f106116435761010080835404028352916020019161166e565b820191906000526020600020905b81548152906001019060200180831161165157829003601f168201915b505050505081526020016001820160009054906101000a900460ff161515151581526020016002820180546116a290613647565b80601f01602080910402602001604051908101604052809291908181526020018280546116ce90613647565b801561171b5780601f106116f05761010080835404028352916020019161171b565b820191906000526020600020905b8154815290600101906020018083116116fe57829003601f168201915b5050505050815260200160038201805461173490613647565b80601f016020809104026020016040519081016040528092919081815260200182805461176090613647565b80156117ad5780601f10611782576101008083540402835291602001916117ad565b820191906000526020600020905b81548152906001019060200180831161179057829003601f168201915b505050505081526020016004820180546117c690613647565b80601f01602080910402602001604051908101604052809291908181526020018280546117f290613647565b801561183f5780601f106118145761010080835404028352916020019161183f565b820191906000526020600020905b81548152906001019060200180831161182257829003601f168201915b5050505050815260200160058201805461185890613647565b80601f016020809104026020016040519081016040528092919081815260200182805461188490613647565b80156118d15780601f106118a6576101008083540402835291602001916118d1565b820191906000526020600020905b8154815290600101906020018083116118b457829003601f168201915b5050505050815260200160068201805480602002602001604051908101604052809291908181526020016000905b828210156119ab57838290600052602060002001805461191e90613647565b80601f016020809104026020016040519081016040528092919081815260200182805461194a90613647565b80156119975780601f1061196c57610100808354040283529160200191611997565b820191906000526020600020905b81548152906001019060200180831161197a57829003601f168201915b5050505050815260200190600101906118ff565b5050505081526020016007820180546119c390613647565b80601f01602080910402602001604051908101604052809291908181526020018280546119ef90613647565b8015611a3c5780601f10611a1157610100808354040283529160200191611a3c565b820191906000526020600020905b815481529060010190602001808311611a1f57829003601f168201915b5050505050815250509050919050565b6000611a588233611faa565b9050611a643382612114565b6000611a708333612469565b9050611a7c8382612114565b600260008473ffffffffffffffffffffffffffffffffffffffff1673ffffffffffffffffffffffffffffffffffffffff168152602001908152602001600020339080600181540180825580915050600190039060005260206000200160009091909190916101000a81548173ffffffffffffffffffffffffffffffffffffffff021916908373ffffffffffffffffffffffffffffffffffffffff160217905550600260003373ffffffffffffffffffffffffffffffffffffffff1673ffffffffffffffffffffffffffffffffffffffff168152602001908152602001600020839080600181540180825580915050600190039060005260206000200160009091909190916101000a81548173ffffffffffffffffffffffffffffffffffffffff021916908373ffffffffffffffffffffffffffffffffffffffff160217905550505050565b6000825111611c05576040517f08c379a0000000000000000000000000000000000000000000000000000000008152600401611bfc90613a69565b60405180910390fd5b60008067ffffffffffffffff811115611c2157611c20612d63565b5b604051908082528060200260200182016040528015611c5457816020015b6060815260200190600190039081611c3f5790505b50905060008067ffffffffffffffff811115611c7357611c72612d63565b5b604051908082528060200260200182016040528015611ca15781602001602082028036833780820191505090505b5090506000604051806101000160405280600460003373ffffffffffffffffffffffffffffffffffffffff1673ffffffffffffffffffffffffffffffffffffffff1681526020019081526020016000208054905081526020013373ffffffffffffffffffffffffffffffffffffffff16815260200186815260200185815260200142815260200160008152602001848152602001838152509050600460003373ffffffffffffffffffffffffffffffffffffffff1673ffffffffffffffffffffffffffffffffffffffff1681526020019081526020016000208190806001815401808255809150506001900390600052602060002090600802016000909190919091506000820151816000015560208201518160010160006101000a81548173ffffffffffffffffffffffffffffffffffffffff021916908373ffffffffffffffffffffffffffffffffffffffff1602179055506040820151816002019081611e0a9190613922565b506060820151816003019081611e209190613922565b506080820151816004015560a0820151816005015560c0820151816006019080519060200190611e519291906125d3565b5060e0820151816007019080519060200190611e6e929190612673565b5050507fd8ba4f273ef6a931f13dc691474b7c1f96c178aa14cbb5138b49c33ecf06f31033868360800151604051611ea893929190613a98565b60405180910390a15050505050565b6000611ec38233611faa565b9050611ecf3382612114565b6000611edb8333612469565b9050611ee78382612114565b505050565b806000815111611f31576040517f08c379a0000000000000000000000000000000000000000000000000000000008152600401611f2890613756565b60405180910390fd5b600160003373ffffffffffffffffffffffffffffffffffffffff1673ffffffffffffffffffffffffffffffffffffffff16815260200190815260200160002060060182908060018154018082558091505060019003906000526020600020016000909190919091509081611fa59190613922565b505050565b600080600090505b600360008473ffffffffffffffffffffffffffffffffffffffff1673ffffffffffffffffffffffffffffffffffffffff168152602001908152602001600020805490508110156120c7578373ffffffffffffffffffffffffffffffffffffffff16600360008573ffffffffffffffffffffffffffffffffffffffff1673ffffffffffffffffffffffffffffffffffffffff168152602001908152602001600020828154811061206457612063613678565b5b906000526020600020906003020160000160009054906101000a900473ffffffffffffffffffffffffffffffffffffffff1673ffffffffffffffffffffffffffffffffffffffff16036120ba578091505061210e565b8080600101915050611fb2565b50600360008373ffffffffffffffffffffffffffffffffffffffff1673ffffffffffffffffffffffffffffffffffffffff1681526020019081526020016000208054905090505b92915050565b600360008373ffffffffffffffffffffffffffffffffffffffff1673ffffffffffffffffffffffffffffffffffffffff168152602001908152602001600020805490508110612198576040517f08c379a000000000000000000000000000000000000000000000000000000000815260040161218f90613b22565b60405180910390fd5b60008190505b6001600360008573ffffffffffffffffffffffffffffffffffffffff1673ffffffffffffffffffffffffffffffffffffffff168152602001908152602001600020805490506121ed9190613b42565b8110156123a657600360008473ffffffffffffffffffffffffffffffffffffffff1673ffffffffffffffffffffffffffffffffffffffff16815260200190815260200160002060018261224091906136d6565b8154811061225157612250613678565b5b9060005260206000209060030201600360008573ffffffffffffffffffffffffffffffffffffffff1673ffffffffffffffffffffffffffffffffffffffff16815260200190815260200160002082815481106122b0576122af613678565b5b90600052602060002090600302016000820160009054906101000a900473ffffffffffffffffffffffffffffffffffffffff168160000160006101000a81548173ffffffffffffffffffffffffffffffffffffffff021916908373ffffffffffffffffffffffffffffffffffffffff1602179055506001820160009054906101000a900473ffffffffffffffffffffffffffffffffffffffff168160010160006101000a81548173ffffffffffffffffffffffffffffffffffffffff021916908373ffffffffffffffffffffffffffffffffffffffff16021790555060028201548160020155905050808060010191505061219e565b50600360008373ffffffffffffffffffffffffffffffffffffffff1673ffffffffffffffffffffffffffffffffffffffff1681526020019081526020016000208054806123f6576123f5613b76565b5b6001900381819060005260206000209060030201600080820160006101000a81549073ffffffffffffffffffffffffffffffffffffffff02191690556001820160006101000a81549073ffffffffffffffffffffffffffffffffffffffff02191690556002820160009055505090555050565b600080600090505b600360008573ffffffffffffffffffffffffffffffffffffffff1673ffffffffffffffffffffffffffffffffffffffff16815260200190815260200160002080549050811015612586578273ffffffffffffffffffffffffffffffffffffffff16600360008673ffffffffffffffffffffffffffffffffffffffff1673ffffffffffffffffffffffffffffffffffffffff168152602001908152602001600020828154811061252357612522613678565b5b906000526020600020906003020160010160009054906101000a900473ffffffffffffffffffffffffffffffffffffffff1673ffffffffffffffffffffffffffffffffffffffff160361257957809150506125cd565b8080600101915050612471565b50600360008473ffffffffffffffffffffffffffffffffffffffff1673ffffffffffffffffffffffffffffffffffffffff1681526020019081526020016000208054905090505b92915050565b82805482825590600052602060002090810192821561261b579160200282015b8281111561261a57825182908161260a9190613922565b50916020019190600101906125f3565b5b50905061262891906126fd565b5090565b604051806101000160405280606081526020016000151581526020016060815260200160608152602001606081526020016060815260200160608152602001606081525090565b8280548282559060005260206000209081019282156126ec579160200282015b828111156126eb5782518260006101000a81548173ffffffffffffffffffffffffffffffffffffffff021916908373ffffffffffffffffffffffffffffffffffffffff16021790555091602001919060010190612693565b5b5090506126f99190612721565b5090565b5b8082111561271d5760008181612714919061273e565b506001016126fe565b5090565b5b8082111561273a576000816000905550600101612722565b5090565b50805461274a90613647565b6000825580601f1061275c575061277b565b601f01602090049060005260206000209081019061277a9190612721565b5b50565b6000604051905090565b600080fd5b600080fd5b600073ffffffffffffffffffffffffffffffffffffffff82169050919050565b60006127bd82612792565b9050919050565b6127cd816127b2565b81146127d857600080fd5b50565b6000813590506127ea816127c4565b92915050565b60006020828403121561280657612805612788565b5b6000612814848285016127db565b91505092915050565b600081519050919050565b600082825260208201905092915050565b60005b8381101561285757808201518184015260208101905061283c565b60008484015250505050565b6000601f19601f8301169050919050565b600061287f8261281d565b6128898185612828565b9350612899818560208601612839565b6128a281612863565b840191505092915050565b60008115159050919050565b6128c2816128ad565b82525050565b600060e08201905081810360008301526128e2818a612874565b90506128f160208301896128b9565b81810360408301526129038188612874565b905081810360608301526129178187612874565b9050818103608083015261292b8186612874565b905081810360a083015261293f8185612874565b905081810360c08301526129538184612874565b905098975050505050505050565b6000819050919050565b61297481612961565b811461297f57600080fd5b50565b6000813590506129918161296b565b92915050565b600080604083850312156129ae576129ad612788565b5b60006129bc858286016127db565b92505060206129cd85828601612982565b9150509250929050565b600081519050919050565b600082825260208201905092915050565b6000819050602082019050919050565b612a0c81612961565b82525050565b612a1b816127b2565b82525050565b600082825260208201905092915050565b6000612a3d8261281d565b612a478185612a21565b9350612a57818560208601612839565b612a6081612863565b840191505092915050565b600081519050919050565b600082825260208201905092915050565b6000819050602082019050919050565b6000612aa38383612a32565b905092915050565b6000602082019050919050565b6000612ac382612a6b565b612acd8185612a76565b935083602082028501612adf85612a87565b8060005b85811015612b1b5784840389528151612afc8582612a97565b9450612b0783612aab565b925060208a01995050600181019050612ae3565b50829750879550505050505092915050565b600081519050919050565b600082825260208201905092915050565b6000819050602082019050919050565b6000612b658383612a12565b60208301905092915050565b6000602082019050919050565b6000612b8982612b2d565b612b938185612b38565b9350612b9e83612b49565b8060005b83811015612bcf578151612bb68882612b59565b9750612bc183612b71565b925050600181019050612ba2565b5085935050505092915050565b600061010083016000830151612bf56000860182612a03565b506020830151612c086020860182612a12565b5060408301518482036040860152612c208282612a32565b91505060608301518482036060860152612c3a8282612a32565b9150506080830151612c4f6080860182612a03565b5060a0830151612c6260a0860182612a03565b5060c083015184820360c0860152612c7a8282612ab8565b91505060e083015184820360e0860152612c948282612b7e565b9150508091505092915050565b6000612cad8383612bdc565b905092915050565b6000602082019050919050565b6000612ccd826129d7565b612cd781856129e2565b935083602082028501612ce9856129f3565b8060005b85811015612d255784840389528151612d068582612ca1565b9450612d1183612cb5565b925060208a01995050600181019050612ced565b50829750879550505050505092915050565b60006020820190508181036000830152612d518184612cc2565b905092915050565b600080fd5b600080fd5b7f4e487b7100000000000000000000000000000000000000000000000000000000600052604160045260246000fd5b612d9b82612863565b810181811067ffffffffffffffff82111715612dba57612db9612d63565b5b80604052505050565b6000612dcd61277e565b9050612dd98282612d92565b919050565b600067ffffffffffffffff821115612df957612df8612d63565b5b612e0282612863565b9050602081019050919050565b82818337600083830152505050565b6000612e31612e2c84612dde565b612dc3565b905082815260208101848484011115612e4d57612e4c612d5e565b5b612e58848285612e0f565b509392505050565b600082601f830112612e7557612e74612d59565b5b8135612e85848260208601612e1e565b91505092915050565b600060208284031215612ea457612ea3612788565b5b600082013567ffffffffffffffff811115612ec257612ec161278d565b5b612ece84828501612e60565b91505092915050565b600081519050919050565b600082825260208201905092915050565b6000819050602082019050919050565b606082016000820151612f196000850182612a12565b506020820151612f2c6020850182612a12565b506040820151612f3f6040850182612a03565b50505050565b6000612f518383612f03565b60608301905092915050565b6000602082019050919050565b6000612f7582612ed7565b612f7f8185612ee2565b9350612f8a83612ef3565b8060005b83811015612fbb578151612fa28882612f45565b9750612fad83612f5d565b925050600181019050612f8e565b5085935050505092915050565b60006020820190508181036000830152612fe28184612f6a565b905092915050565b612ff3816127b2565b82525050565b600060208201905061300e6000830184612fea565b92915050565b6000806000806080858703121561302e5761302d612788565b5b600085013567ffffffffffffffff81111561304c5761304b61278d565b5b61305887828801612e60565b945050602085013567ffffffffffffffff8111156130795761307861278d565b5b61308587828801612e60565b935050604085013567ffffffffffffffff8111156130a6576130a561278d565b5b6130b287828801612e60565b925050606085013567ffffffffffffffff8111156130d3576130d261278d565b5b6130df87828801612e60565b91505092959194509250565b6130f4816128ad565b81146130ff57600080fd5b50565b600081359050613111816130eb565b92915050565b600067ffffffffffffffff82111561313257613131612d63565b5b602082029050602081019050919050565b600080fd5b600061315b61315684613117565b612dc3565b9050808382526020820190506020840283018581111561317e5761317d613143565b5b835b818110156131c557803567ffffffffffffffff8111156131a3576131a2612d59565b5b8086016131b08982612e60565b85526020850194505050602081019050613180565b5050509392505050565b600082601f8301126131e4576131e3612d59565b5b81356131f4848260208601613148565b91505092915050565b600080600080600080600080610100898b03121561321e5761321d612788565b5b600089013567ffffffffffffffff81111561323c5761323b61278d565b5b6132488b828c01612e60565b98505060206132598b828c01613102565b975050604089013567ffffffffffffffff81111561327a5761327961278d565b5b6132868b828c01612e60565b965050606089013567ffffffffffffffff8111156132a7576132a661278d565b5b6132b38b828c01612e60565b955050608089013567ffffffffffffffff8111156132d4576132d361278d565b5b6132e08b828c01612e60565b94505060a089013567ffffffffffffffff8111156133015761330061278d565b5b61330d8b828c01612e60565b93505060c089013567ffffffffffffffff81111561332e5761332d61278d565b5b61333a8b828c016131cf565b92505060e089013567ffffffffffffffff81111561335b5761335a61278d565b5b6133678b828c01612e60565b9150509295985092959890939650565b613380816128ad565b82525050565b60006101008301600083015184820360008601526133a48282612a32565b91505060208301516133b96020860182613377565b50604083015184820360408601526133d18282612a32565b915050606083015184820360608601526133eb8282612a32565b915050608083015184820360808601526134058282612a32565b91505060a083015184820360a086015261341f8282612a32565b91505060c083015184820360c08601526134398282612ab8565b91505060e083015184820360e08601526134538282612a32565b9150508091505092915050565b6000602082019050818103600083015261347a8184613386565b905092915050565b6000806040838503121561349957613498612788565b5b600083013567ffffffffffffffff8111156134b7576134b661278d565b5b6134c385828601612e60565b925050602083013567ffffffffffffffff8111156134e4576134e361278d565b5b6134f085828601612e60565b9150509250929050565b7f496e76616c696420617574686f72206164647265737320666f756e6400000000600082015250565b6000613530601c83612828565b915061353b826134fa565b602082019050919050565b6000602082019050818103600083015261355f81613523565b9050919050565b600081905092915050565b50565b6000613581600083613566565b915061358c82613571565b600082019050919050565b60006135a282613574565b9150819050919050565b7f4661696c656420746f2073656e6420616d6f756e740000000000000000000000600082015250565b60006135e2601583612828565b91506135ed826135ac565b602082019050919050565b60006020820190508181036000830152613611816135d5565b9050919050565b7f4e487b7100000000000000000000000000000000000000000000000000000000600052602260045260246000fd5b6000600282049050600182168061365f57607f821691505b60208210810361367257613671613618565b5b50919050565b7f4e487b7100000000000000000000000000000000000000000000000000000000600052603260045260246000fd5b7f4e487b7100000000000000000000000000000000000000000000000000000000600052601160045260246000fd5b60006136e182612961565b91506136ec83612961565b9250828201905080821115613704576137036136a7565b5b92915050565b7f656d707479207465787400000000000000000000000000000000000000000000600082015250565b6000613740600a83612828565b915061374b8261370a565b602082019050919050565b6000602082019050818103600083015261376f81613733565b9050919050565b60008190508160005260206000209050919050565b60006020601f8301049050919050565b600082821b905092915050565b6000600883026137d87fffffffffffffffffffffffffffffffffffffffffffffffffffffffffffffffff8261379b565b6137e2868361379b565b95508019841693508086168417925050509392505050565b6000819050919050565b600061381f61381a61381584612961565b6137fa565b612961565b9050919050565b6000819050919050565b61383983613804565b61384d61384582613826565b8484546137a8565b825550505050565b600090565b613862613855565b61386d818484613830565b505050565b5b818110156138915761388660008261385a565b600181019050613873565b5050565b601f8211156138d6576138a781613776565b6138b08461378b565b810160208510156138bf578190505b6138d36138cb8561378b565b830182613872565b50505b505050565b600082821c905092915050565b60006138f9600019846008026138db565b1980831691505092915050565b600061391283836138e8565b9150826002028217905092915050565b61392b8261281d565b67ffffffffffffffff81111561394457613943612d63565b5b61394e8254613647565b613959828285613895565b600060209050601f83116001811461398c576000841561397a578287015190505b6139848582613906565b8655506139ec565b601f19841661399a86613776565b60005b828110156139c25784890151825560018201915060208501945060208101905061399d565b868310156139df57848901516139db601f8916826138e8565b8355505b6001600288020188555050505b505050505050565b6000604082019050613a096000830185612fea565b613a166020830184612fea565b9392505050565b7f636f6e74656e74206d757374206e6f7420626520656d70747900000000000000600082015250565b6000613a53601983612828565b9150613a5e82613a1d565b602082019050919050565b60006020820190508181036000830152613a8281613a46565b9050919050565b613a9281612961565b82525050565b6000606082019050613aad6000830186612fea565b8181036020830152613abf8185612874565b9050613ace6040830184613a89565b949350505050565b7f496e76616c6964207265717565737420696e6465782e00000000000000000000600082015250565b6000613b0c601683612828565b9150613b1782613ad6565b602082019050919050565b60006020820190508181036000830152613b3b81613aff565b9050919050565b6000613b4d82612961565b9150613b5883612961565b9250828203905081811115613b7057613b6f6136a7565b5b92915050565b7f4e487b7100000000000000000000000000000000000000000000000000000000600052603160045260246000fdfea2646970667358221220efa4116e4e97876c9f9b943cc585deda344b4c9a379c54daced43d69d195ed0a64736f6c63430008180033",
  "linkReferences": {},
  "deployedLinkReferences": {}
}